{
  "abi": [
    {
      "inputs": [
        {
          "internalType": "address",
          "name": "_teamAddress",
          "type": "address"
        }
      ],
      "stateMutability": "nonpayable",
      "type": "constructor"
    },
    {
      "inputs": [],
      "name": "AmountExceedsAllowance",
      "type": "error"
    },
    {
      "inputs": [],
      "name": "MintPayableTooLow",
      "type": "error"
    },
    {
      "inputs": [],
      "name": "NotOnWhitelist",
      "type": "error"
    },
    {
      "inputs": [],
      "name": "NotOpenYet",
      "type": "error"
    },
    {
      "inputs": [],
      "name": "TeamAwardClaimed",
      "type": "error"
    },
    {
      "anonymous": false,
      "inputs": [
        {
          "indexed": true,
          "internalType": "address",
          "name": "account",
          "type": "address"
        },
        {
          "indexed": true,
          "internalType": "address",
          "name": "operator",
          "type": "address"
        },
        {
          "indexed": false,
          "internalType": "bool",
          "name": "approved",
          "type": "bool"
        }
      ],
      "name": "ApprovalForAll",
      "type": "event"
    },
    {
      "anonymous": false,
      "inputs": [
        {
          "indexed": true,
          "internalType": "address",
          "name": "previousOwner",
          "type": "address"
        },
        {
          "indexed": true,
          "internalType": "address",
          "name": "newOwner",
          "type": "address"
        }
      ],
      "name": "OwnershipTransferred",
      "type": "event"
    },
    {
      "anonymous": false,
      "inputs": [
        {
          "indexed": false,
          "internalType": "address",
          "name": "account",
          "type": "address"
        }
      ],
      "name": "Paused",
      "type": "event"
    },
    {
      "anonymous": false,
      "inputs": [
        {
          "indexed": true,
          "internalType": "address",
          "name": "operator",
          "type": "address"
        },
        {
          "indexed": true,
          "internalType": "address",
          "name": "from",
          "type": "address"
        },
        {
          "indexed": true,
          "internalType": "address",
          "name": "to",
          "type": "address"
        },
        {
          "indexed": false,
          "internalType": "uint256[]",
          "name": "ids",
          "type": "uint256[]"
        },
        {
          "indexed": false,
          "internalType": "uint256[]",
          "name": "values",
          "type": "uint256[]"
        }
      ],
      "name": "TransferBatch",
      "type": "event"
    },
    {
      "anonymous": false,
      "inputs": [
        {
          "indexed": true,
          "internalType": "address",
          "name": "operator",
          "type": "address"
        },
        {
          "indexed": true,
          "internalType": "address",
          "name": "from",
          "type": "address"
        },
        {
          "indexed": true,
          "internalType": "address",
          "name": "to",
          "type": "address"
        },
        {
          "indexed": false,
          "internalType": "uint256",
          "name": "id",
          "type": "uint256"
        },
        {
          "indexed": false,
          "internalType": "uint256",
          "name": "value",
          "type": "uint256"
        }
      ],
      "name": "TransferSingle",
      "type": "event"
    },
    {
      "anonymous": false,
      "inputs": [
        {
          "indexed": false,
          "internalType": "string",
          "name": "value",
          "type": "string"
        },
        {
          "indexed": true,
          "internalType": "uint256",
          "name": "id",
          "type": "uint256"
        }
      ],
      "name": "URI",
      "type": "event"
    },
    {
      "anonymous": false,
      "inputs": [
        {
          "indexed": false,
          "internalType": "address",
          "name": "account",
          "type": "address"
        }
      ],
      "name": "Unpaused",
      "type": "event"
    },
    {
      "inputs": [],
      "name": "INCUBATOR",
      "outputs": [
        {
          "internalType": "uint256",
          "name": "",
          "type": "uint256"
        }
      ],
      "stateMutability": "view",
      "type": "function"
    },
    {
      "inputs": [],
      "name": "MAX_MINT_PER_ADDRESS",
      "outputs": [
        {
          "internalType": "uint256",
          "name": "",
          "type": "uint256"
        }
      ],
      "stateMutability": "view",
      "type": "function"
    },
    {
      "inputs": [
        {
          "internalType": "address",
          "name": "account",
          "type": "address"
        },
        {
          "internalType": "uint256",
          "name": "id",
          "type": "uint256"
        }
      ],
      "name": "balanceOf",
      "outputs": [
        {
          "internalType": "uint256",
          "name": "",
          "type": "uint256"
        }
      ],
      "stateMutability": "view",
      "type": "function"
    },
    {
      "inputs": [
        {
          "internalType": "address[]",
          "name": "accounts",
          "type": "address[]"
        },
        {
          "internalType": "uint256[]",
          "name": "ids",
          "type": "uint256[]"
        }
      ],
      "name": "balanceOfBatch",
      "outputs": [
        {
          "internalType": "uint256[]",
          "name": "",
          "type": "uint256[]"
        }
      ],
      "stateMutability": "view",
      "type": "function"
    },
    {
      "inputs": [
        {
          "internalType": "address",
          "name": "account",
          "type": "address"
        },
        {
          "internalType": "uint256",
          "name": "id",
          "type": "uint256"
        },
        {
          "internalType": "uint256",
          "name": "value",
          "type": "uint256"
        }
      ],
      "name": "burn",
      "outputs": [],
      "stateMutability": "nonpayable",
      "type": "function"
    },
    {
      "inputs": [
        {
          "internalType": "address",
          "name": "account",
          "type": "address"
        },
        {
          "internalType": "uint256[]",
          "name": "ids",
          "type": "uint256[]"
        },
        {
          "internalType": "uint256[]",
          "name": "values",
          "type": "uint256[]"
        }
      ],
      "name": "burnBatch",
      "outputs": [],
      "stateMutability": "nonpayable",
      "type": "function"
    },
    {
      "inputs": [
        {
          "internalType": "uint256",
          "name": "id",
          "type": "uint256"
        }
      ],
      "name": "exists",
      "outputs": [
        {
          "internalType": "bool",
          "name": "",
          "type": "bool"
        }
      ],
      "stateMutability": "view",
      "type": "function"
    },
    {
      "inputs": [
        {
          "internalType": "address",
          "name": "_address",
          "type": "address"
        }
      ],
      "name": "getPreSaleAddressRemainingMints",
      "outputs": [
        {
          "internalType": "uint256",
          "name": "",
          "type": "uint256"
        }
      ],
      "stateMutability": "view",
      "type": "function"
    },
    {
      "inputs": [
        {
          "internalType": "address",
          "name": "_address",
          "type": "address"
        }
      ],
      "name": "getPublicSaleAddressRemainingMints",
      "outputs": [
        {
          "internalType": "uint256",
          "name": "",
          "type": "uint256"
        }
      ],
      "stateMutability": "view",
      "type": "function"
    },
    {
      "inputs": [
        {
          "internalType": "address",
          "name": "account",
          "type": "address"
        },
        {
          "internalType": "address",
          "name": "operator",
          "type": "address"
        }
      ],
      "name": "isApprovedForAll",
      "outputs": [
        {
          "internalType": "bool",
          "name": "",
          "type": "bool"
        }
      ],
      "stateMutability": "view",
      "type": "function"
    },
    {
      "inputs": [],
      "name": "name",
      "outputs": [
        {
          "internalType": "string",
          "name": "",
          "type": "string"
        }
      ],
      "stateMutability": "view",
      "type": "function"
    },
    {
      "inputs": [],
      "name": "owner",
      "outputs": [
        {
          "internalType": "address",
          "name": "",
          "type": "address"
        }
      ],
      "stateMutability": "view",
      "type": "function"
    },
    {
      "inputs": [],
      "name": "pause",
      "outputs": [],
      "stateMutability": "nonpayable",
      "type": "function"
    },
    {
      "inputs": [],
      "name": "paused",
      "outputs": [
        {
          "internalType": "bool",
          "name": "",
          "type": "bool"
        }
      ],
      "stateMutability": "view",
      "type": "function"
    },
    {
      "inputs": [
        {
          "internalType": "uint256",
          "name": "_amount",
          "type": "uint256"
        },
        {
          "internalType": "bytes32[]",
          "name": "_merkleProof",
          "type": "bytes32[]"
        }
      ],
      "name": "preSaleMint",
      "outputs": [],
      "stateMutability": "payable",
      "type": "function"
    },
    {
      "inputs": [],
      "name": "preSaleMintPrice",
      "outputs": [
        {
          "internalType": "uint256",
          "name": "",
          "type": "uint256"
        }
      ],
      "stateMutability": "view",
      "type": "function"
    },
    {
      "inputs": [],
      "name": "preSaleOpen",
      "outputs": [
        {
          "internalType": "bool",
          "name": "",
          "type": "bool"
        }
      ],
      "stateMutability": "view",
      "type": "function"
    },
    {
      "inputs": [
        {
          "internalType": "uint256",
          "name": "_amount",
          "type": "uint256"
        }
      ],
      "name": "publicMint",
      "outputs": [],
      "stateMutability": "payable",
      "type": "function"
    },
    {
      "inputs": [],
      "name": "publicSaleMintPrice",
      "outputs": [
        {
          "internalType": "uint256",
          "name": "",
          "type": "uint256"
        }
      ],
      "stateMutability": "view",
      "type": "function"
    },
    {
      "inputs": [],
      "name": "publicSaleOpen",
      "outputs": [
        {
          "internalType": "bool",
          "name": "",
          "type": "bool"
        }
      ],
      "stateMutability": "view",
      "type": "function"
    },
    {
      "inputs": [],
      "name": "renounceOwnership",
      "outputs": [],
      "stateMutability": "nonpayable",
      "type": "function"
    },
    {
      "inputs": [
        {
          "internalType": "address",
          "name": "from",
          "type": "address"
        },
        {
          "internalType": "address",
          "name": "to",
          "type": "address"
        },
        {
          "internalType": "uint256[]",
          "name": "ids",
          "type": "uint256[]"
        },
        {
          "internalType": "uint256[]",
          "name": "amounts",
          "type": "uint256[]"
        },
        {
          "internalType": "bytes",
          "name": "data",
          "type": "bytes"
        }
      ],
      "name": "safeBatchTransferFrom",
      "outputs": [],
      "stateMutability": "nonpayable",
      "type": "function"
    },
    {
      "inputs": [
        {
          "internalType": "address",
          "name": "from",
          "type": "address"
        },
        {
          "internalType": "address",
          "name": "to",
          "type": "address"
        },
        {
          "internalType": "uint256",
          "name": "id",
          "type": "uint256"
        },
        {
          "internalType": "uint256",
          "name": "amount",
          "type": "uint256"
        },
        {
          "internalType": "bytes",
          "name": "data",
          "type": "bytes"
        }
      ],
      "name": "safeTransferFrom",
      "outputs": [],
      "stateMutability": "nonpayable",
      "type": "function"
    },
    {
      "inputs": [
        {
          "internalType": "address",
          "name": "operator",
          "type": "address"
        },
        {
          "internalType": "bool",
          "name": "approved",
          "type": "bool"
        }
      ],
      "name": "setApprovalForAll",
      "outputs": [],
      "stateMutability": "nonpayable",
      "type": "function"
    },
    {
      "inputs": [
        {
          "internalType": "bytes32",
          "name": "_merkleRoot",
          "type": "bytes32"
        }
      ],
      "name": "setMerkleRoot",
      "outputs": [],
      "stateMutability": "nonpayable",
      "type": "function"
    },
    {
      "inputs": [
        {
          "internalType": "uint256",
          "name": "_mintPrice",
          "type": "uint256"
        }
      ],
      "name": "setPreSaleMintPrice",
      "outputs": [],
      "stateMutability": "nonpayable",
      "type": "function"
    },
    {
      "inputs": [
        {
          "internalType": "uint256",
          "name": "_mintPrice",
          "type": "uint256"
        }
      ],
      "name": "setPublicSaleMintPrice",
      "outputs": [],
      "stateMutability": "nonpayable",
      "type": "function"
    },
    {
      "inputs": [
        {
          "internalType": "string",
          "name": "newuri",
          "type": "string"
        }
      ],
      "name": "setURI",
      "outputs": [],
      "stateMutability": "nonpayable",
      "type": "function"
    },
    {
      "inputs": [
        {
          "internalType": "bytes4",
          "name": "interfaceId",
          "type": "bytes4"
        }
      ],
      "name": "supportsInterface",
      "outputs": [
        {
          "internalType": "bool",
          "name": "",
          "type": "bool"
        }
      ],
      "stateMutability": "view",
      "type": "function"
    },
    {
      "inputs": [],
      "name": "symbol",
      "outputs": [
        {
          "internalType": "string",
          "name": "",
          "type": "string"
        }
      ],
      "stateMutability": "view",
      "type": "function"
    },
    {
      "inputs": [],
      "name": "teamAward",
      "outputs": [],
      "stateMutability": "nonpayable",
      "type": "function"
    },
    {
      "inputs": [],
      "name": "teamAwardClaimed",
      "outputs": [
        {
          "internalType": "bool",
          "name": "",
          "type": "bool"
        }
      ],
      "stateMutability": "view",
      "type": "function"
    },
    {
      "inputs": [],
      "name": "togglePreSaleOpen",
      "outputs": [],
      "stateMutability": "nonpayable",
      "type": "function"
    },
    {
      "inputs": [],
      "name": "togglePublicSaleOpen",
      "outputs": [],
      "stateMutability": "nonpayable",
      "type": "function"
    },
    {
      "inputs": [],
      "name": "tokenCount",
      "outputs": [
        {
          "internalType": "uint256",
          "name": "",
          "type": "uint256"
        }
      ],
      "stateMutability": "view",
      "type": "function"
    },
    {
      "inputs": [
        {
          "internalType": "uint256",
          "name": "id",
          "type": "uint256"
        }
      ],
      "name": "totalSupply",
      "outputs": [
        {
          "internalType": "uint256",
          "name": "",
          "type": "uint256"
        }
      ],
      "stateMutability": "view",
      "type": "function"
    },
    {
      "inputs": [
        {
          "internalType": "address",
          "name": "newOwner",
          "type": "address"
        }
      ],
      "name": "transferOwnership",
      "outputs": [],
      "stateMutability": "nonpayable",
      "type": "function"
    },
    {
      "inputs": [],
      "name": "unpause",
      "outputs": [],
      "stateMutability": "nonpayable",
      "type": "function"
    },
    {
      "inputs": [
        {
          "internalType": "uint256",
          "name": "",
          "type": "uint256"
        }
      ],
      "name": "uri",
      "outputs": [
        {
          "internalType": "string",
          "name": "",
          "type": "string"
        }
      ],
      "stateMutability": "view",
      "type": "function"
    },
    {
      "inputs": [],
      "name": "withdrawFunds",
      "outputs": [],
      "stateMutability": "nonpayable",
      "type": "function"
    }
  ],
  "bytecode": "60c0604052600d60808190526c36b4b73a34b731bab130ba37b960991b60a090815262000030916005919062000180565b506040805180820190915260038082526262626960e81b60209092019182526200005d9160069162000180565b5067016345785d8a0000600755670214e8348c4f0000600855600b805462ffffff191690553480156200008f57600080fd5b5060405162002dd738038062002dd7833981016040819052620000b29162000226565b604080516020810190915260008152620000cc8162000115565b50620000d8336200012e565b6003805460ff60a01b19169055600b80546001600160a01b039092166301000000026301000000600160b81b031990921691909117905562000295565b80516200012a90600290602084019062000180565b5050565b600380546001600160a01b038381166001600160a01b0319831681179093556040519116919082907f8be0079c531659141344cd1fd0a4f28419497f9722a3daafe3b4186f6b6457e090600090a35050565b8280546200018e9062000258565b90600052602060002090601f016020900481019282620001b25760008555620001fd565b82601f10620001cd57805160ff1916838001178555620001fd565b82800160010185558215620001fd579182015b82811115620001fd578251825591602001919060010190620001e0565b506200020b9291506200020f565b5090565b5b808211156200020b576000815560010162000210565b6000602082840312156200023957600080fd5b81516001600160a01b03811681146200025157600080fd5b9392505050565b600181811c908216806200026d57607f821691505b602082108114156200028f57634e487b7160e01b600052602260045260246000fd5b50919050565b612b3280620002a56000396000f3fe60806040526004361061023a5760003560e01c80636dae38981161012e578063a22cb465116100ab578063ec7d09911161006f578063ec7d09911461067d578063f242432a14610693578063f2fde38b146106b3578063f5298aca146106d3578063f9e23799146106f357600080fd5b8063a22cb465146105ad578063ba11ecde146105cd578063bd85b039146105e7578063e985e9c514610614578063ec2354dc1461065d57600080fd5b80638456cb59116100f25780638456cb59146105305780638da5cb5b1461054557806394df74a01461056d57806395d89b41146105825780639f181b5e1461059757600080fd5b80636dae3898146104a6578063715018a6146104c657806373529a97146104db5780637a123215146104fb5780637cb647591461051057600080fd5b80632eb2c2d6116101bc5780634c220f6e116101805780634c220f6e146103f85780634e1273f41461040b5780634f558e79146104385780635c975abb146104675780636b20c4541461048657600080fd5b80632eb2c2d61461036e5780633acd6cb21461038e5780633b9ee7e4146103a35780633f4ba83a146103c357806343a49a56146103d857600080fd5b80630b99f7eb116102035780630b99f7eb146102fb5780630e89341c146103105780631a387bc31461033057806324600fc3146103465780632db115441461035b57600080fd5b8062fdd58e1461023f57806301ffc9a71461027257806302fe5305146102a257806306fdde03146102c457806309f657f3146102e6575b600080fd5b34801561024b57600080fd5b5061025f61025a36600461201f565b610712565b6040519081526020015b60405180910390f35b34801561027e57600080fd5b5061029261028d36600461205f565b6107a9565b6040519015158152602001610269565b3480156102ae57600080fd5b506102c26102bd36600461211d565b6107fb565b005b3480156102d057600080fd5b506102d9610831565b60405161026991906121bb565b3480156102f257600080fd5b5061025f600181565b34801561030757600080fd5b506102c26108bf565b34801561031c57600080fd5b506102d961032b3660046121ce565b610906565b34801561033c57600080fd5b5061025f60085481565b34801561035257600080fd5b506102c261099a565b6102c26103693660046121ce565b610a06565b34801561037a57600080fd5b506102c261038936600461229c565b610ac0565b34801561039a57600080fd5b5061025f600581565b3480156103af57600080fd5b506102c26103be3660046121ce565b610b50565b3480156103cf57600080fd5b506102c2610b7f565b3480156103e457600080fd5b5061025f6103f3366004612346565b610bb3565b6102c2610406366004612361565b610bd7565b34801561041757600080fd5b5061042b6104263660046123e0565b610d26565b60405161026991906124e6565b34801561044457600080fd5b506102926104533660046121ce565b600090815260046020526040902054151590565b34801561047357600080fd5b50600354600160a01b900460ff16610292565b34801561049257600080fd5b506102c26104a13660046124f9565b610e50565b3480156104b257600080fd5b5061025f6104c1366004612346565b610e98565b3480156104d257600080fd5b506102c2610ebc565b3480156104e757600080fd5b50600b546102929062010000900460ff1681565b34801561050757600080fd5b506102c2610ef0565b34801561051c57600080fd5b506102c261052b3660046121ce565b610f2e565b34801561053c57600080fd5b506102c2610f5d565b34801561055157600080fd5b506003546040516001600160a01b039091168152602001610269565b34801561057957600080fd5b506102c2610f8f565b34801561058e57600080fd5b506102d9611037565b3480156105a357600080fd5b5061025f60095481565b3480156105b957600080fd5b506102c26105c836600461256d565b611044565b3480156105d957600080fd5b50600b546102929060ff1681565b3480156105f357600080fd5b5061025f6106023660046121ce565b60009081526004602052604090205490565b34801561062057600080fd5b5061029261062f3660046125a9565b6001600160a01b03918216600090815260016020908152604080832093909416825291909152205460ff1690565b34801561066957600080fd5b506102c26106783660046121ce565b611053565b34801561068957600080fd5b5061025f60075481565b34801561069f57600080fd5b506102c26106ae3660046125dc565b611082565b3480156106bf57600080fd5b506102c26106ce366004612346565b6110c7565b3480156106df57600080fd5b506102c26106ee366004612641565b61115f565b3480156106ff57600080fd5b50600b5461029290610100900460ff1681565b60006001600160a01b0383166107835760405162461bcd60e51b815260206004820152602b60248201527f455243313135353a2062616c616e636520717565727920666f7220746865207a60448201526a65726f206164647265737360a81b60648201526084015b60405180910390fd5b506000908152602081815260408083206001600160a01b03949094168352929052205490565b60006001600160e01b03198216636cdb3d1360e11b14806107da57506001600160e01b031982166303a24d0760e21b145b806107f557506301ffc9a760e01b6001600160e01b03198316145b92915050565b6003546001600160a01b031633146108255760405162461bcd60e51b815260040161077a90612674565b61082e816111a2565b50565b6005805461083e906126a9565b80601f016020809104026020016040519081016040528092919081815260200182805461086a906126a9565b80156108b75780601f1061088c576101008083540402835291602001916108b7565b820191906000526020600020905b81548152906001019060200180831161089a57829003601f168201915b505050505081565b6003546001600160a01b031633146108e95760405162461bcd60e51b815260040161077a90612674565b600b805461ff001981166101009182900460ff1615909102179055565b606060028054610915906126a9565b80601f0160208091040260200160405190810160405280929190818152602001828054610941906126a9565b801561098e5780601f106109635761010080835404028352916020019161098e565b820191906000526020600020905b81548152906001019060200180831161097157829003601f168201915b50505050509050919050565b6003546001600160a01b031633146109c45760405162461bcd60e51b815260040161077a90612674565b600b546040516001600160a01b03630100000090920491909116904780156108fc02916000818181858888f1935050505015801561082e573d6000803e3d6000fd5b80600854610a1482826111b5565b341015610a345760405163a7924a1360e01b815260040160405180910390fd5b82600d6005610a6783836000336001600160a01b03166001600160a01b03168152602001908152602001600020546111c8565b1115610a86576040516303814af160e61b815260040160405180910390fd5b600b54610100900460ff16610aae5760405163e6dd1a3160e01b815260040160405180910390fd5b610ab985600d6111d4565b5050505050565b6001600160a01b038516331480610adc5750610adc853361062f565b610b435760405162461bcd60e51b815260206004820152603260248201527f455243313135353a207472616e736665722063616c6c6572206973206e6f74206044820152711bdddb995c881b9bdc88185c1c1c9bdd995960721b606482015260840161077a565b610ab98585858585611229565b6003546001600160a01b03163314610b7a5760405162461bcd60e51b815260040161077a90612674565b600755565b6003546001600160a01b03163314610ba95760405162461bcd60e51b815260040161077a90612674565b610bb16113d3565b565b6001600160a01b0381166000908152600c60205260408120546107f59060056126fa565b82600754610be582826111b5565b341015610c055760405163a7924a1360e01b815260040160405180910390fd5b84600c6005610c3883836000336001600160a01b03166001600160a01b03168152602001908152602001600020546111c8565b1115610c57576040516303814af160e61b815260040160405180910390fd5b600b5460ff16610c7a5760405163e6dd1a3160e01b815260040160405180910390fd5b6040516bffffffffffffffffffffffff193360601b166020820152600090603401604051602081830303815290604052805190602001209050610cf487878080602002602001604051908101604052809392919081815260200183836020028082843760009201919091525050600a549150849050611470565b610d115760405163522fc3bd60e01b815260040160405180910390fd5b610d1c88600c6111d4565b5050505050505050565b60608151835114610d8b5760405162461bcd60e51b815260206004820152602960248201527f455243313135353a206163636f756e747320616e6420696473206c656e677468604482015268040dad2e6dac2e8c6d60bb1b606482015260840161077a565b6000835167ffffffffffffffff811115610da757610da761207c565b604051908082528060200260200182016040528015610dd0578160200160208202803683370190505b50905060005b8451811015610e4857610e1b858281518110610df457610df4612711565b6020026020010151858381518110610e0e57610e0e612711565b6020026020010151610712565b828281518110610e2d57610e2d612711565b6020908102919091010152610e4181612727565b9050610dd6565b509392505050565b6001600160a01b038316331480610e6c5750610e6c833361062f565b610e885760405162461bcd60e51b815260040161077a90612742565b610e93838383611486565b505050565b6001600160a01b0381166000908152600d60205260408120546107f59060056126fa565b6003546001600160a01b03163314610ee65760405162461bcd60e51b815260040161077a90612674565b610bb16000611614565b6003546001600160a01b03163314610f1a5760405162461bcd60e51b815260040161077a90612674565b600b805460ff19811660ff90911615179055565b6003546001600160a01b03163314610f585760405162461bcd60e51b815260040161077a90612674565b600a55565b6003546001600160a01b03163314610f875760405162461bcd60e51b815260040161077a90612674565b610bb1611666565b6003546001600160a01b03163314610fb95760405162461bcd60e51b815260040161077a90612674565b600b5462010000900460ff1615610fe357604051637f00e5dd60e11b815260040160405180910390fd5b600b805462ff00001916620100001790556009546110029060326111c8565b600955600b54604080516020810190915260008152610bb191630100000090046001600160a01b0316906001906032906116ee565b6006805461083e906126a9565b61104f3383836117fe565b5050565b6003546001600160a01b0316331461107d5760405162461bcd60e51b815260040161077a90612674565b600855565b6001600160a01b03851633148061109e575061109e853361062f565b6110ba5760405162461bcd60e51b815260040161077a90612742565b610ab985858585856118df565b6003546001600160a01b031633146110f15760405162461bcd60e51b815260040161077a90612674565b6001600160a01b0381166111565760405162461bcd60e51b815260206004820152602660248201527f4f776e61626c653a206e6577206f776e657220697320746865207a65726f206160448201526564647265737360d01b606482015260840161077a565b61082e81611614565b6001600160a01b03831633148061117b575061117b833361062f565b6111975760405162461bcd60e51b815260040161077a90612742565b610e938383836119fc565b805161104f906002906020840190611f6a565b60006111c1828461278b565b9392505050565b60006111c182846127aa565b6111e0600954836111c8565b600955336000908152602082905260409020546111fd90836111c8565b33600081815260208481526040808320949094558351908101909352825261104f9160019085906116ee565b815183511461124a5760405162461bcd60e51b815260040161077a906127c2565b6001600160a01b0384166112705760405162461bcd60e51b815260040161077a9061280a565b3361127f818787878787611afd565b60005b845181101561136557600085828151811061129f5761129f612711565b6020026020010151905060008583815181106112bd576112bd612711565b602090810291909101810151600084815280835260408082206001600160a01b038e16835290935291909120549091508181101561130d5760405162461bcd60e51b815260040161077a9061284f565b6000838152602081815260408083206001600160a01b038e8116855292528083208585039055908b1682528120805484929061134a9084906127aa565b925050819055505050508061135e90612727565b9050611282565b50846001600160a01b0316866001600160a01b0316826001600160a01b03167f4a39dc06d4c0dbc64b70af90fd698a233a518aa5d07e595d983b8c0526c8f7fb87876040516113b5929190612899565b60405180910390a46113cb818787878787611b58565b505050505050565b600354600160a01b900460ff166114235760405162461bcd60e51b815260206004820152601460248201527314185d5cd8589b194e881b9bdd081c185d5cd95960621b604482015260640161077a565b6003805460ff60a01b191690557f5db9ee0a495bf2e6ff9c91a7834c1ba4fdd244a5e8aa4e537bd38aeae4b073aa335b6040516001600160a01b03909116815260200160405180910390a1565b60008261147d8584611cb4565b14949350505050565b6001600160a01b0383166114ac5760405162461bcd60e51b815260040161077a906128c7565b80518251146114cd5760405162461bcd60e51b815260040161077a906127c2565b60003390506114f081856000868660405180602001604052806000815250611afd565b60005b83518110156115b557600084828151811061151057611510612711565b60200260200101519050600084838151811061152e5761152e612711565b602090810291909101810151600084815280835260408082206001600160a01b038c16835290935291909120549091508181101561157e5760405162461bcd60e51b815260040161077a9061290a565b6000928352602083815260408085206001600160a01b038b16865290915290922091039055806115ad81612727565b9150506114f3565b5060006001600160a01b0316846001600160a01b0316826001600160a01b03167f4a39dc06d4c0dbc64b70af90fd698a233a518aa5d07e595d983b8c0526c8f7fb8686604051611606929190612899565b60405180910390a450505050565b600380546001600160a01b038381166001600160a01b0319831681179093556040519116919082907f8be0079c531659141344cd1fd0a4f28419497f9722a3daafe3b4186f6b6457e090600090a35050565b600354600160a01b900460ff16156116b35760405162461bcd60e51b815260206004820152601060248201526f14185d5cd8589b194e881c185d5cd95960821b604482015260640161077a565b6003805460ff60a01b1916600160a01b1790557f62e78cea01bee320cd4e420270b5ea74000d11b0c9f74754ebdbfc544b05a2586114533390565b6001600160a01b03841661174e5760405162461bcd60e51b815260206004820152602160248201527f455243313135353a206d696e7420746f20746865207a65726f206164647265736044820152607360f81b606482015260840161077a565b3361176e8160008761175f88611d58565b61176888611d58565b87611afd565b6000848152602081815260408083206001600160a01b03891684529091528120805485929061179e9084906127aa565b909155505060408051858152602081018590526001600160a01b0380881692600092918516917fc3d58168c5ae7397731d063d5bbf3d657854427343f4c083240f7aacaa2d0f62910160405180910390a4610ab981600087878787611da3565b816001600160a01b0316836001600160a01b031614156118725760405162461bcd60e51b815260206004820152602960248201527f455243313135353a2073657474696e6720617070726f76616c20737461747573604482015268103337b91039b2b63360b91b606482015260840161077a565b6001600160a01b03838116600081815260016020908152604080832094871680845294825291829020805460ff191686151590811790915591519182527f17307eab39ab6107e8899845ad3d59bd9653f200f220920489ca2b5937696c31910160405180910390a3505050565b6001600160a01b0384166119055760405162461bcd60e51b815260040161077a9061280a565b3361191581878761175f88611d58565b6000848152602081815260408083206001600160a01b038a168452909152902054838110156119565760405162461bcd60e51b815260040161077a9061284f565b6000858152602081815260408083206001600160a01b038b81168552925280832087850390559088168252812080548692906119939084906127aa565b909155505060408051868152602081018690526001600160a01b03808916928a821692918616917fc3d58168c5ae7397731d063d5bbf3d657854427343f4c083240f7aacaa2d0f62910160405180910390a46119f3828888888888611da3565b50505050505050565b6001600160a01b038316611a225760405162461bcd60e51b815260040161077a906128c7565b33611a5181856000611a3387611d58565b611a3c87611d58565b60405180602001604052806000815250611afd565b6000838152602081815260408083206001600160a01b038816845290915290205482811015611a925760405162461bcd60e51b815260040161077a9061290a565b6000848152602081815260408083206001600160a01b03898116808652918452828520888703905582518981529384018890529092908616917fc3d58168c5ae7397731d063d5bbf3d657854427343f4c083240f7aacaa2d0f62910160405180910390a45050505050565b600354600160a01b900460ff1615611b4a5760405162461bcd60e51b815260206004820152601060248201526f14185d5cd8589b194e881c185d5cd95960821b604482015260640161077a565b6113cb868686868686611e5e565b6001600160a01b0384163b156113cb5760405163bc197c8160e01b81526001600160a01b0385169063bc197c8190611b9c908990899088908890889060040161294e565b6020604051808303816000875af1925050508015611bd7575060408051601f3d908101601f19168201909252611bd4918101906129ac565b60015b611c8457611be36129c9565b806308c379a01415611c1d5750611bf86129e5565b80611c035750611c1f565b8060405162461bcd60e51b815260040161077a91906121bb565b505b60405162461bcd60e51b815260206004820152603460248201527f455243313135353a207472616e7366657220746f206e6f6e20455243313135356044820152732932b1b2b4bb32b91034b6b83632b6b2b73a32b960611b606482015260840161077a565b6001600160e01b0319811663bc197c8160e01b146119f35760405162461bcd60e51b815260040161077a90612a6f565b600081815b8451811015610e48576000858281518110611cd657611cd6612711565b60200260200101519050808311611d18576040805160208101859052908101829052606001604051602081830303815290604052805190602001209250611d45565b60408051602081018390529081018490526060016040516020818303038152906040528051906020012092505b5080611d5081612727565b915050611cb9565b60408051600180825281830190925260609160009190602080830190803683370190505090508281600081518110611d9257611d92612711565b602090810291909101015292915050565b6001600160a01b0384163b156113cb5760405163f23a6e6160e01b81526001600160a01b0385169063f23a6e6190611de79089908990889088908890600401612ab7565b6020604051808303816000875af1925050508015611e22575060408051601f3d908101601f19168201909252611e1f918101906129ac565b60015b611e2e57611be36129c9565b6001600160e01b0319811663f23a6e6160e01b146119f35760405162461bcd60e51b815260040161077a90612a6f565b6001600160a01b038516611ee55760005b8351811015611ee357828181518110611e8a57611e8a612711565b602002602001015160046000868481518110611ea857611ea8612711565b602002602001015181526020019081526020016000206000828254611ecd91906127aa565b90915550611edc905081612727565b9050611e6f565b505b6001600160a01b0384166113cb5760005b83518110156119f357828181518110611f1157611f11612711565b602002602001015160046000868481518110611f2f57611f2f612711565b602002602001015181526020019081526020016000206000828254611f5491906126fa565b90915550611f63905081612727565b9050611ef6565b828054611f76906126a9565b90600052602060002090601f016020900481019282611f985760008555611fde565b82601f10611fb157805160ff1916838001178555611fde565b82800160010185558215611fde579182015b82811115611fde578251825591602001919060010190611fc3565b50611fea929150611fee565b5090565b5b80821115611fea5760008155600101611fef565b80356001600160a01b038116811461201a57600080fd5b919050565b6000806040838503121561203257600080fd5b61203b83612003565b946020939093013593505050565b6001600160e01b03198116811461082e57600080fd5b60006020828403121561207157600080fd5b81356111c181612049565b634e487b7160e01b600052604160045260246000fd5b601f8201601f1916810167ffffffffffffffff811182821017156120b8576120b861207c565b6040525050565b600067ffffffffffffffff8311156120d9576120d961207c565b6040516120f0601f8501601f191660200182612092565b80915083815284848401111561210557600080fd5b83836020830137600060208583010152509392505050565b60006020828403121561212f57600080fd5b813567ffffffffffffffff81111561214657600080fd5b8201601f8101841361215757600080fd5b612166848235602084016120bf565b949350505050565b6000815180845260005b8181101561219457602081850181015186830182015201612178565b818111156121a6576000602083870101525b50601f01601f19169290920160200192915050565b6020815260006111c1602083018461216e565b6000602082840312156121e057600080fd5b5035919050565b600067ffffffffffffffff8211156122015761220161207c565b5060051b60200190565b600082601f83011261221c57600080fd5b81356020612229826121e7565b6040516122368282612092565b83815260059390931b850182019282810191508684111561225657600080fd5b8286015b84811015612271578035835291830191830161225a565b509695505050505050565b600082601f83011261228d57600080fd5b6111c1838335602085016120bf565b600080600080600060a086880312156122b457600080fd5b6122bd86612003565b94506122cb60208701612003565b9350604086013567ffffffffffffffff808211156122e857600080fd5b6122f489838a0161220b565b9450606088013591508082111561230a57600080fd5b61231689838a0161220b565b9350608088013591508082111561232c57600080fd5b506123398882890161227c565b9150509295509295909350565b60006020828403121561235857600080fd5b6111c182612003565b60008060006040848603121561237657600080fd5b83359250602084013567ffffffffffffffff8082111561239557600080fd5b818601915086601f8301126123a957600080fd5b8135818111156123b857600080fd5b8760208260051b85010111156123cd57600080fd5b6020830194508093505050509250925092565b600080604083850312156123f357600080fd5b823567ffffffffffffffff8082111561240b57600080fd5b818501915085601f83011261241f57600080fd5b8135602061242c826121e7565b6040516124398282612092565b83815260059390931b850182019282810191508984111561245957600080fd5b948201945b8386101561247e5761246f86612003565b8252948201949082019061245e565b9650508601359250508082111561249457600080fd5b506124a18582860161220b565b9150509250929050565b600081518084526020808501945080840160005b838110156124db578151875295820195908201906001016124bf565b509495945050505050565b6020815260006111c160208301846124ab565b60008060006060848603121561250e57600080fd5b61251784612003565b9250602084013567ffffffffffffffff8082111561253457600080fd5b6125408783880161220b565b9350604086013591508082111561255657600080fd5b506125638682870161220b565b9150509250925092565b6000806040838503121561258057600080fd5b61258983612003565b91506020830135801515811461259e57600080fd5b809150509250929050565b600080604083850312156125bc57600080fd5b6125c583612003565b91506125d360208401612003565b90509250929050565b600080600080600060a086880312156125f457600080fd5b6125fd86612003565b945061260b60208701612003565b93506040860135925060608601359150608086013567ffffffffffffffff81111561263557600080fd5b6123398882890161227c565b60008060006060848603121561265657600080fd5b61265f84612003565b95602085013595506040909401359392505050565b6020808252818101527f4f776e61626c653a2063616c6c6572206973206e6f7420746865206f776e6572604082015260600190565b600181811c908216806126bd57607f821691505b602082108114156126de57634e487b7160e01b600052602260045260246000fd5b50919050565b634e487b7160e01b600052601160045260246000fd5b60008282101561270c5761270c6126e4565b500390565b634e487b7160e01b600052603260045260246000fd5b600060001982141561273b5761273b6126e4565b5060010190565b60208082526029908201527f455243313135353a2063616c6c6572206973206e6f74206f776e6572206e6f7260408201526808185c1c1c9bdd995960ba1b606082015260800190565b60008160001904831182151516156127a5576127a56126e4565b500290565b600082198211156127bd576127bd6126e4565b500190565b60208082526028908201527f455243313135353a2069647320616e6420616d6f756e7473206c656e677468206040820152670dad2e6dac2e8c6d60c31b606082015260800190565b60208082526025908201527f455243313135353a207472616e7366657220746f20746865207a65726f206164604082015264647265737360d81b606082015260800190565b6020808252602a908201527f455243313135353a20696e73756666696369656e742062616c616e636520666f60408201526939103a3930b739b332b960b11b606082015260800190565b6040815260006128ac60408301856124ab565b82810360208401526128be81856124ab565b95945050505050565b60208082526023908201527f455243313135353a206275726e2066726f6d20746865207a65726f206164647260408201526265737360e81b606082015260800190565b60208082526024908201527f455243313135353a206275726e20616d6f756e7420657863656564732062616c604082015263616e636560e01b606082015260800190565b6001600160a01b0386811682528516602082015260a06040820181905260009061297a908301866124ab565b828103606084015261298c81866124ab565b905082810360808401526129a0818561216e565b98975050505050505050565b6000602082840312156129be57600080fd5b81516111c181612049565b600060033d11156129e25760046000803e5060005160e01c5b90565b600060443d10156129f35790565b6040516003193d81016004833e81513d67ffffffffffffffff8160248401118184111715612a2357505050505090565b8285019150815181811115612a3b5750505050505090565b843d8701016020828501011115612a555750505050505090565b612a6460208286010187612092565b509095945050505050565b60208082526028908201527f455243313135353a204552433131353552656365697665722072656a656374656040820152676420746f6b656e7360c01b606082015260800190565b6001600160a01b03868116825285166020820152604081018490526060810183905260a060808201819052600090612af19083018461216e565b97965050505050505056fea2646970667358221220bce88b2353ab4896245a246a84f7abc62018b4fef2291d1bff48305eeeafd32f64736f6c634300080b0033",
  "bytecodeSha1": "1fd32df1d5c5051f9819afaaf0c5d497fd41ec01",
  "compiler": {
    "evm_version": "istanbul",
    "optimizer": {
      "enabled": true,
      "runs": 200
    },
    "version": "0.8.11+commit.d7f03943"
  },
  "contractName": "BillionaireBabiesIncubator",
  "language": "Solidity",
  "natspec": {
    "errors": {
      "AmountExceedsAllowance()": [
        {
          "notice": "Amount exceeds address allowance"
        }
      ],
      "MintPayableTooLow()": [
        {
          "notice": "msg.value too low"
        }
      ],
      "NotOnWhitelist()": [
        {
          "notice": "You are not on the whitelist"
        }
      ],
      "NotOpenYet()": [
        {
          "notice": "Function Not open yet"
        }
      ],
      "TeamAwardClaimed()": [
        {
          "notice": "Team award already claimed"
        }
      ]
    },
    "kind": "dev",
    "methods": {
      "balanceOf(address,uint256)": {
        "details": "See {IERC1155-balanceOf}. Requirements: - `account` cannot be the zero address."
      },
      "balanceOfBatch(address[],uint256[])": {
        "details": "See {IERC1155-balanceOfBatch}. Requirements: - `accounts` and `ids` must have the same length."
      },
      "exists(uint256)": {
        "details": "Indicates whether any token exist with a given id, or not."
      },
      "getPreSaleAddressRemainingMints(address)": {
        "notice": "views"
      },
      "isApprovedForAll(address,address)": {
        "details": "See {IERC1155-isApprovedForAll}."
      },
      "owner()": {
        "details": "Returns the address of the current owner."
      },
      "paused()": {
        "details": "Returns true if the contract is paused, and false otherwise."
      },
      "renounceOwnership()": {
        "details": "Leaves the contract without owner. It will not be possible to call `onlyOwner` functions anymore. Can only be called by the current owner. NOTE: Renouncing ownership will leave the contract without an owner, thereby removing any functionality that is only available to the owner."
      },
      "safeBatchTransferFrom(address,address,uint256[],uint256[],bytes)": {
        "details": "See {IERC1155-safeBatchTransferFrom}."
      },
      "safeTransferFrom(address,address,uint256,uint256,bytes)": {
        "details": "See {IERC1155-safeTransferFrom}."
      },
      "setApprovalForAll(address,bool)": {
        "details": "See {IERC1155-setApprovalForAll}."
      },
      "supportsInterface(bytes4)": {
        "details": "See {IERC165-supportsInterface}."
      },
      "togglePreSaleOpen()": {
        "notice": "Settings"
      },
      "totalSupply(uint256)": {
        "details": "Total amount of tokens in with a given id."
      },
      "transferOwnership(address)": {
        "details": "Transfers ownership of the contract to a new account (`newOwner`). Can only be called by the current owner."
      },
      "uri(uint256)": {
        "details": "See {IERC1155MetadataURI-uri}. This implementation returns the same URI for *all* token types. It relies on the token type ID substitution mechanism https://eips.ethereum.org/EIPS/eip-1155#metadata[defined in the EIP]. Clients calling this function must replace the `\\{id\\}` substring with the actual token type ID."
      }
    },
    "version": 1
  },
  "opcodes": "PUSH1 0x80 PUSH1 0x40 MSTORE PUSH1 0x4 CALLDATASIZE LT PUSH2 0x23A JUMPI PUSH1 0x0 CALLDATALOAD PUSH1 0xE0 SHR DUP1 PUSH4 0x6DAE3898 GT PUSH2 0x12E JUMPI DUP1 PUSH4 0xA22CB465 GT PUSH2 0xAB JUMPI DUP1 PUSH4 0xEC7D0991 GT PUSH2 0x6F JUMPI DUP1 PUSH4 0xEC7D0991 EQ PUSH2 0x67D JUMPI DUP1 PUSH4 0xF242432A EQ PUSH2 0x693 JUMPI DUP1 PUSH4 0xF2FDE38B EQ PUSH2 0x6B3 JUMPI DUP1 PUSH4 0xF5298ACA EQ PUSH2 0x6D3 JUMPI DUP1 PUSH4 0xF9E23799 EQ PUSH2 0x6F3 JUMPI PUSH1 0x0 DUP1 REVERT JUMPDEST DUP1 PUSH4 0xA22CB465 EQ PUSH2 0x5AD JUMPI DUP1 PUSH4 0xBA11ECDE EQ PUSH2 0x5CD JUMPI DUP1 PUSH4 0xBD85B039 EQ PUSH2 0x5E7 JUMPI DUP1 PUSH4 0xE985E9C5 EQ PUSH2 0x614 JUMPI DUP1 PUSH4 0xEC2354DC EQ PUSH2 0x65D JUMPI PUSH1 0x0 DUP1 REVERT JUMPDEST DUP1 PUSH4 0x8456CB59 GT PUSH2 0xF2 JUMPI DUP1 PUSH4 0x8456CB59 EQ PUSH2 0x530 JUMPI DUP1 PUSH4 0x8DA5CB5B EQ PUSH2 0x545 JUMPI DUP1 PUSH4 0x94DF74A0 EQ PUSH2 0x56D JUMPI DUP1 PUSH4 0x95D89B41 EQ PUSH2 0x582 JUMPI DUP1 PUSH4 0x9F181B5E EQ PUSH2 0x597 JUMPI PUSH1 0x0 DUP1 REVERT JUMPDEST DUP1 PUSH4 0x6DAE3898 EQ PUSH2 0x4A6 JUMPI DUP1 PUSH4 0x715018A6 EQ PUSH2 0x4C6 JUMPI DUP1 PUSH4 0x73529A97 EQ PUSH2 0x4DB JUMPI DUP1 PUSH4 0x7A123215 EQ PUSH2 0x4FB JUMPI DUP1 PUSH4 0x7CB64759 EQ PUSH2 0x510 JUMPI PUSH1 0x0 DUP1 REVERT JUMPDEST DUP1 PUSH4 0x2EB2C2D6 GT PUSH2 0x1BC JUMPI DUP1 PUSH4 0x4C220F6E GT PUSH2 0x180 JUMPI DUP1 PUSH4 0x4C220F6E EQ PUSH2 0x3F8 JUMPI DUP1 PUSH4 0x4E1273F4 EQ PUSH2 0x40B JUMPI DUP1 PUSH4 0x4F558E79 EQ PUSH2 0x438 JUMPI DUP1 PUSH4 0x5C975ABB EQ PUSH2 0x467 JUMPI DUP1 PUSH4 0x6B20C454 EQ PUSH2 0x486 JUMPI PUSH1 0x0 DUP1 REVERT JUMPDEST DUP1 PUSH4 0x2EB2C2D6 EQ PUSH2 0x36E JUMPI DUP1 PUSH4 0x3ACD6CB2 EQ PUSH2 0x38E JUMPI DUP1 PUSH4 0x3B9EE7E4 EQ PUSH2 0x3A3 JUMPI DUP1 PUSH4 0x3F4BA83A EQ PUSH2 0x3C3 JUMPI DUP1 PUSH4 0x43A49A56 EQ PUSH2 0x3D8 JUMPI PUSH1 0x0 DUP1 REVERT JUMPDEST DUP1 PUSH4 0xB99F7EB GT PUSH2 0x203 JUMPI DUP1 PUSH4 0xB99F7EB EQ PUSH2 0x2FB JUMPI DUP1 PUSH4 0xE89341C EQ PUSH2 0x310 JUMPI DUP1 PUSH4 0x1A387BC3 EQ PUSH2 0x330 JUMPI DUP1 PUSH4 0x24600FC3 EQ PUSH2 0x346 JUMPI DUP1 PUSH4 0x2DB11544 EQ PUSH2 0x35B JUMPI PUSH1 0x0 DUP1 REVERT JUMPDEST DUP1 PUSH3 0xFDD58E EQ PUSH2 0x23F JUMPI DUP1 PUSH4 0x1FFC9A7 EQ PUSH2 0x272 JUMPI DUP1 PUSH4 0x2FE5305 EQ PUSH2 0x2A2 JUMPI DUP1 PUSH4 0x6FDDE03 EQ PUSH2 0x2C4 JUMPI DUP1 PUSH4 0x9F657F3 EQ PUSH2 0x2E6 JUMPI JUMPDEST PUSH1 0x0 DUP1 REVERT JUMPDEST CALLVALUE DUP1 ISZERO PUSH2 0x24B JUMPI PUSH1 0x0 DUP1 REVERT JUMPDEST POP PUSH2 0x25F PUSH2 0x25A CALLDATASIZE PUSH1 0x4 PUSH2 0x201F JUMP JUMPDEST PUSH2 0x712 JUMP JUMPDEST PUSH1 0x40 MLOAD SWAP1 DUP2 MSTORE PUSH1 0x20 ADD JUMPDEST PUSH1 0x40 MLOAD DUP1 SWAP2 SUB SWAP1 RETURN JUMPDEST CALLVALUE DUP1 ISZERO PUSH2 0x27E JUMPI PUSH1 0x0 DUP1 REVERT JUMPDEST POP PUSH2 0x292 PUSH2 0x28D CALLDATASIZE PUSH1 0x4 PUSH2 0x205F JUMP JUMPDEST PUSH2 0x7A9 JUMP JUMPDEST PUSH1 0x40 MLOAD SWAP1 ISZERO ISZERO DUP2 MSTORE PUSH1 0x20 ADD PUSH2 0x269 JUMP JUMPDEST CALLVALUE DUP1 ISZERO PUSH2 0x2AE JUMPI PUSH1 0x0 DUP1 REVERT JUMPDEST POP PUSH2 0x2C2 PUSH2 0x2BD CALLDATASIZE PUSH1 0x4 PUSH2 0x211D JUMP JUMPDEST PUSH2 0x7FB JUMP JUMPDEST STOP JUMPDEST CALLVALUE DUP1 ISZERO PUSH2 0x2D0 JUMPI PUSH1 0x0 DUP1 REVERT JUMPDEST POP PUSH2 0x2D9 PUSH2 0x831 JUMP JUMPDEST PUSH1 0x40 MLOAD PUSH2 0x269 SWAP2 SWAP1 PUSH2 0x21BB JUMP JUMPDEST CALLVALUE DUP1 ISZERO PUSH2 0x2F2 JUMPI PUSH1 0x0 DUP1 REVERT JUMPDEST POP PUSH2 0x25F PUSH1 0x1 DUP2 JUMP JUMPDEST CALLVALUE DUP1 ISZERO PUSH2 0x307 JUMPI PUSH1 0x0 DUP1 REVERT JUMPDEST POP PUSH2 0x2C2 PUSH2 0x8BF JUMP JUMPDEST CALLVALUE DUP1 ISZERO PUSH2 0x31C JUMPI PUSH1 0x0 DUP1 REVERT JUMPDEST POP PUSH2 0x2D9 PUSH2 0x32B CALLDATASIZE PUSH1 0x4 PUSH2 0x21CE JUMP JUMPDEST PUSH2 0x906 JUMP JUMPDEST CALLVALUE DUP1 ISZERO PUSH2 0x33C JUMPI PUSH1 0x0 DUP1 REVERT JUMPDEST POP PUSH2 0x25F PUSH1 0x8 SLOAD DUP2 JUMP JUMPDEST CALLVALUE DUP1 ISZERO PUSH2 0x352 JUMPI PUSH1 0x0 DUP1 REVERT JUMPDEST POP PUSH2 0x2C2 PUSH2 0x99A JUMP JUMPDEST PUSH2 0x2C2 PUSH2 0x369 CALLDATASIZE PUSH1 0x4 PUSH2 0x21CE JUMP JUMPDEST PUSH2 0xA06 JUMP JUMPDEST CALLVALUE DUP1 ISZERO PUSH2 0x37A JUMPI PUSH1 0x0 DUP1 REVERT JUMPDEST POP PUSH2 0x2C2 PUSH2 0x389 CALLDATASIZE PUSH1 0x4 PUSH2 0x229C JUMP JUMPDEST PUSH2 0xAC0 JUMP JUMPDEST CALLVALUE DUP1 ISZERO PUSH2 0x39A JUMPI PUSH1 0x0 DUP1 REVERT JUMPDEST POP PUSH2 0x25F PUSH1 0x5 DUP2 JUMP JUMPDEST CALLVALUE DUP1 ISZERO PUSH2 0x3AF JUMPI PUSH1 0x0 DUP1 REVERT JUMPDEST POP PUSH2 0x2C2 PUSH2 0x3BE CALLDATASIZE PUSH1 0x4 PUSH2 0x21CE JUMP JUMPDEST PUSH2 0xB50 JUMP JUMPDEST CALLVALUE DUP1 ISZERO PUSH2 0x3CF JUMPI PUSH1 0x0 DUP1 REVERT JUMPDEST POP PUSH2 0x2C2 PUSH2 0xB7F JUMP JUMPDEST CALLVALUE DUP1 ISZERO PUSH2 0x3E4 JUMPI PUSH1 0x0 DUP1 REVERT JUMPDEST POP PUSH2 0x25F PUSH2 0x3F3 CALLDATASIZE PUSH1 0x4 PUSH2 0x2346 JUMP JUMPDEST PUSH2 0xBB3 JUMP JUMPDEST PUSH2 0x2C2 PUSH2 0x406 CALLDATASIZE PUSH1 0x4 PUSH2 0x2361 JUMP JUMPDEST PUSH2 0xBD7 JUMP JUMPDEST CALLVALUE DUP1 ISZERO PUSH2 0x417 JUMPI PUSH1 0x0 DUP1 REVERT JUMPDEST POP PUSH2 0x42B PUSH2 0x426 CALLDATASIZE PUSH1 0x4 PUSH2 0x23E0 JUMP JUMPDEST PUSH2 0xD26 JUMP JUMPDEST PUSH1 0x40 MLOAD PUSH2 0x269 SWAP2 SWAP1 PUSH2 0x24E6 JUMP JUMPDEST CALLVALUE DUP1 ISZERO PUSH2 0x444 JUMPI PUSH1 0x0 DUP1 REVERT JUMPDEST POP PUSH2 0x292 PUSH2 0x453 CALLDATASIZE PUSH1 0x4 PUSH2 0x21CE JUMP JUMPDEST PUSH1 0x0 SWAP1 DUP2 MSTORE PUSH1 0x4 PUSH1 0x20 MSTORE PUSH1 0x40 SWAP1 KECCAK256 SLOAD ISZERO ISZERO SWAP1 JUMP JUMPDEST CALLVALUE DUP1 ISZERO PUSH2 0x473 JUMPI PUSH1 0x0 DUP1 REVERT JUMPDEST POP PUSH1 0x3 SLOAD PUSH1 0x1 PUSH1 0xA0 SHL SWAP1 DIV PUSH1 0xFF AND PUSH2 0x292 JUMP JUMPDEST CALLVALUE DUP1 ISZERO PUSH2 0x492 JUMPI PUSH1 0x0 DUP1 REVERT JUMPDEST POP PUSH2 0x2C2 PUSH2 0x4A1 CALLDATASIZE PUSH1 0x4 PUSH2 0x24F9 JUMP JUMPDEST PUSH2 0xE50 JUMP JUMPDEST CALLVALUE DUP1 ISZERO PUSH2 0x4B2 JUMPI PUSH1 0x0 DUP1 REVERT JUMPDEST POP PUSH2 0x25F PUSH2 0x4C1 CALLDATASIZE PUSH1 0x4 PUSH2 0x2346 JUMP JUMPDEST PUSH2 0xE98 JUMP JUMPDEST CALLVALUE DUP1 ISZERO PUSH2 0x4D2 JUMPI PUSH1 0x0 DUP1 REVERT JUMPDEST POP PUSH2 0x2C2 PUSH2 0xEBC JUMP JUMPDEST CALLVALUE DUP1 ISZERO PUSH2 0x4E7 JUMPI PUSH1 0x0 DUP1 REVERT JUMPDEST POP PUSH1 0xB SLOAD PUSH2 0x292 SWAP1 PUSH3 0x10000 SWAP1 DIV PUSH1 0xFF AND DUP2 JUMP JUMPDEST CALLVALUE DUP1 ISZERO PUSH2 0x507 JUMPI PUSH1 0x0 DUP1 REVERT JUMPDEST POP PUSH2 0x2C2 PUSH2 0xEF0 JUMP JUMPDEST CALLVALUE DUP1 ISZERO PUSH2 0x51C JUMPI PUSH1 0x0 DUP1 REVERT JUMPDEST POP PUSH2 0x2C2 PUSH2 0x52B CALLDATASIZE PUSH1 0x4 PUSH2 0x21CE JUMP JUMPDEST PUSH2 0xF2E JUMP JUMPDEST CALLVALUE DUP1 ISZERO PUSH2 0x53C JUMPI PUSH1 0x0 DUP1 REVERT JUMPDEST POP PUSH2 0x2C2 PUSH2 0xF5D JUMP JUMPDEST CALLVALUE DUP1 ISZERO PUSH2 0x551 JUMPI PUSH1 0x0 DUP1 REVERT JUMPDEST POP PUSH1 0x3 SLOAD PUSH1 0x40 MLOAD PUSH1 0x1 PUSH1 0x1 PUSH1 0xA0 SHL SUB SWAP1 SWAP2 AND DUP2 MSTORE PUSH1 0x20 ADD PUSH2 0x269 JUMP JUMPDEST CALLVALUE DUP1 ISZERO PUSH2 0x579 JUMPI PUSH1 0x0 DUP1 REVERT JUMPDEST POP PUSH2 0x2C2 PUSH2 0xF8F JUMP JUMPDEST CALLVALUE DUP1 ISZERO PUSH2 0x58E JUMPI PUSH1 0x0 DUP1 REVERT JUMPDEST POP PUSH2 0x2D9 PUSH2 0x1037 JUMP JUMPDEST CALLVALUE DUP1 ISZERO PUSH2 0x5A3 JUMPI PUSH1 0x0 DUP1 REVERT JUMPDEST POP PUSH2 0x25F PUSH1 0x9 SLOAD DUP2 JUMP JUMPDEST CALLVALUE DUP1 ISZERO PUSH2 0x5B9 JUMPI PUSH1 0x0 DUP1 REVERT JUMPDEST POP PUSH2 0x2C2 PUSH2 0x5C8 CALLDATASIZE PUSH1 0x4 PUSH2 0x256D JUMP JUMPDEST PUSH2 0x1044 JUMP JUMPDEST CALLVALUE DUP1 ISZERO PUSH2 0x5D9 JUMPI PUSH1 0x0 DUP1 REVERT JUMPDEST POP PUSH1 0xB SLOAD PUSH2 0x292 SWAP1 PUSH1 0xFF AND DUP2 JUMP JUMPDEST CALLVALUE DUP1 ISZERO PUSH2 0x5F3 JUMPI PUSH1 0x0 DUP1 REVERT JUMPDEST POP PUSH2 0x25F PUSH2 0x602 CALLDATASIZE PUSH1 0x4 PUSH2 0x21CE JUMP JUMPDEST PUSH1 0x0 SWAP1 DUP2 MSTORE PUSH1 0x4 PUSH1 0x20 MSTORE PUSH1 0x40 SWAP1 KECCAK256 SLOAD SWAP1 JUMP JUMPDEST CALLVALUE DUP1 ISZERO PUSH2 0x620 JUMPI PUSH1 0x0 DUP1 REVERT JUMPDEST POP PUSH2 0x292 PUSH2 0x62F CALLDATASIZE PUSH1 0x4 PUSH2 0x25A9 JUMP JUMPDEST PUSH1 0x1 PUSH1 0x1 PUSH1 0xA0 SHL SUB SWAP2 DUP3 AND PUSH1 0x0 SWAP1 DUP2 MSTORE PUSH1 0x1 PUSH1 0x20 SWAP1 DUP2 MSTORE PUSH1 0x40 DUP1 DUP4 KECCAK256 SWAP4 SWAP1 SWAP5 AND DUP3 MSTORE SWAP2 SWAP1 SWAP2 MSTORE KECCAK256 SLOAD PUSH1 0xFF AND SWAP1 JUMP JUMPDEST CALLVALUE DUP1 ISZERO PUSH2 0x669 JUMPI PUSH1 0x0 DUP1 REVERT JUMPDEST POP PUSH2 0x2C2 PUSH2 0x678 CALLDATASIZE PUSH1 0x4 PUSH2 0x21CE JUMP JUMPDEST PUSH2 0x1053 JUMP JUMPDEST CALLVALUE DUP1 ISZERO PUSH2 0x689 JUMPI PUSH1 0x0 DUP1 REVERT JUMPDEST POP PUSH2 0x25F PUSH1 0x7 SLOAD DUP2 JUMP JUMPDEST CALLVALUE DUP1 ISZERO PUSH2 0x69F JUMPI PUSH1 0x0 DUP1 REVERT JUMPDEST POP PUSH2 0x2C2 PUSH2 0x6AE CALLDATASIZE PUSH1 0x4 PUSH2 0x25DC JUMP JUMPDEST PUSH2 0x1082 JUMP JUMPDEST CALLVALUE DUP1 ISZERO PUSH2 0x6BF JUMPI PUSH1 0x0 DUP1 REVERT JUMPDEST POP PUSH2 0x2C2 PUSH2 0x6CE CALLDATASIZE PUSH1 0x4 PUSH2 0x2346 JUMP JUMPDEST PUSH2 0x10C7 JUMP JUMPDEST CALLVALUE DUP1 ISZERO PUSH2 0x6DF JUMPI PUSH1 0x0 DUP1 REVERT JUMPDEST POP PUSH2 0x2C2 PUSH2 0x6EE CALLDATASIZE PUSH1 0x4 PUSH2 0x2641 JUMP JUMPDEST PUSH2 0x115F JUMP JUMPDEST CALLVALUE DUP1 ISZERO PUSH2 0x6FF JUMPI PUSH1 0x0 DUP1 REVERT JUMPDEST POP PUSH1 0xB SLOAD PUSH2 0x292 SWAP1 PUSH2 0x100 SWAP1 DIV PUSH1 0xFF AND DUP2 JUMP JUMPDEST PUSH1 0x0 PUSH1 0x1 PUSH1 0x1 PUSH1 0xA0 SHL SUB DUP4 AND PUSH2 0x783 JUMPI PUSH1 0x40 MLOAD PUSH3 0x461BCD PUSH1 0xE5 SHL DUP2 MSTORE PUSH1 0x20 PUSH1 0x4 DUP3 ADD MSTORE PUSH1 0x2B PUSH1 0x24 DUP3 ADD MSTORE PUSH32 0x455243313135353A2062616C616E636520717565727920666F7220746865207A PUSH1 0x44 DUP3 ADD MSTORE PUSH11 0x65726F2061646472657373 PUSH1 0xA8 SHL PUSH1 0x64 DUP3 ADD MSTORE PUSH1 0x84 ADD JUMPDEST PUSH1 0x40 MLOAD DUP1 SWAP2 SUB SWAP1 REVERT JUMPDEST POP PUSH1 0x0 SWAP1 DUP2 MSTORE PUSH1 0x20 DUP2 DUP2 MSTORE PUSH1 0x40 DUP1 DUP4 KECCAK256 PUSH1 0x1 PUSH1 0x1 PUSH1 0xA0 SHL SUB SWAP5 SWAP1 SWAP5 AND DUP4 MSTORE SWAP3 SWAP1 MSTORE KECCAK256 SLOAD SWAP1 JUMP JUMPDEST PUSH1 0x0 PUSH1 0x1 PUSH1 0x1 PUSH1 0xE0 SHL SUB NOT DUP3 AND PUSH4 0x6CDB3D13 PUSH1 0xE1 SHL EQ DUP1 PUSH2 0x7DA JUMPI POP PUSH1 0x1 PUSH1 0x1 PUSH1 0xE0 SHL SUB NOT DUP3 AND PUSH4 0x3A24D07 PUSH1 0xE2 SHL EQ JUMPDEST DUP1 PUSH2 0x7F5 JUMPI POP PUSH4 0x1FFC9A7 PUSH1 0xE0 SHL PUSH1 0x1 PUSH1 0x1 PUSH1 0xE0 SHL SUB NOT DUP4 AND EQ JUMPDEST SWAP3 SWAP2 POP POP JUMP JUMPDEST PUSH1 0x3 SLOAD PUSH1 0x1 PUSH1 0x1 PUSH1 0xA0 SHL SUB AND CALLER EQ PUSH2 0x825 JUMPI PUSH1 0x40 MLOAD PUSH3 0x461BCD PUSH1 0xE5 SHL DUP2 MSTORE PUSH1 0x4 ADD PUSH2 0x77A SWAP1 PUSH2 0x2674 JUMP JUMPDEST PUSH2 0x82E DUP2 PUSH2 0x11A2 JUMP JUMPDEST POP JUMP JUMPDEST PUSH1 0x5 DUP1 SLOAD PUSH2 0x83E SWAP1 PUSH2 0x26A9 JUMP JUMPDEST DUP1 PUSH1 0x1F ADD PUSH1 0x20 DUP1 SWAP2 DIV MUL PUSH1 0x20 ADD PUSH1 0x40 MLOAD SWAP1 DUP2 ADD PUSH1 0x40 MSTORE DUP1 SWAP3 SWAP2 SWAP1 DUP2 DUP2 MSTORE PUSH1 0x20 ADD DUP3 DUP1 SLOAD PUSH2 0x86A SWAP1 PUSH2 0x26A9 JUMP JUMPDEST DUP1 ISZERO PUSH2 0x8B7 JUMPI DUP1 PUSH1 0x1F LT PUSH2 0x88C JUMPI PUSH2 0x100 DUP1 DUP4 SLOAD DIV MUL DUP4 MSTORE SWAP2 PUSH1 0x20 ADD SWAP2 PUSH2 0x8B7 JUMP JUMPDEST DUP3 ADD SWAP2 SWAP1 PUSH1 0x0 MSTORE PUSH1 0x20 PUSH1 0x0 KECCAK256 SWAP1 JUMPDEST DUP2 SLOAD DUP2 MSTORE SWAP1 PUSH1 0x1 ADD SWAP1 PUSH1 0x20 ADD DUP1 DUP4 GT PUSH2 0x89A JUMPI DUP3 SWAP1 SUB PUSH1 0x1F AND DUP3 ADD SWAP2 JUMPDEST POP POP POP POP POP DUP2 JUMP JUMPDEST PUSH1 0x3 SLOAD PUSH1 0x1 PUSH1 0x1 PUSH1 0xA0 SHL SUB AND CALLER EQ PUSH2 0x8E9 JUMPI PUSH1 0x40 MLOAD PUSH3 0x461BCD PUSH1 0xE5 SHL DUP2 MSTORE PUSH1 0x4 ADD PUSH2 0x77A SWAP1 PUSH2 0x2674 JUMP JUMPDEST PUSH1 0xB DUP1 SLOAD PUSH2 0xFF00 NOT DUP2 AND PUSH2 0x100 SWAP2 DUP3 SWAP1 DIV PUSH1 0xFF AND ISZERO SWAP1 SWAP2 MUL OR SWAP1 SSTORE JUMP JUMPDEST PUSH1 0x60 PUSH1 0x2 DUP1 SLOAD PUSH2 0x915 SWAP1 PUSH2 0x26A9 JUMP JUMPDEST DUP1 PUSH1 0x1F ADD PUSH1 0x20 DUP1 SWAP2 DIV MUL PUSH1 0x20 ADD PUSH1 0x40 MLOAD SWAP1 DUP2 ADD PUSH1 0x40 MSTORE DUP1 SWAP3 SWAP2 SWAP1 DUP2 DUP2 MSTORE PUSH1 0x20 ADD DUP3 DUP1 SLOAD PUSH2 0x941 SWAP1 PUSH2 0x26A9 JUMP JUMPDEST DUP1 ISZERO PUSH2 0x98E JUMPI DUP1 PUSH1 0x1F LT PUSH2 0x963 JUMPI PUSH2 0x100 DUP1 DUP4 SLOAD DIV MUL DUP4 MSTORE SWAP2 PUSH1 0x20 ADD SWAP2 PUSH2 0x98E JUMP JUMPDEST DUP3 ADD SWAP2 SWAP1 PUSH1 0x0 MSTORE PUSH1 0x20 PUSH1 0x0 KECCAK256 SWAP1 JUMPDEST DUP2 SLOAD DUP2 MSTORE SWAP1 PUSH1 0x1 ADD SWAP1 PUSH1 0x20 ADD DUP1 DUP4 GT PUSH2 0x971 JUMPI DUP3 SWAP1 SUB PUSH1 0x1F AND DUP3 ADD SWAP2 JUMPDEST POP POP POP POP POP SWAP1 POP SWAP2 SWAP1 POP JUMP JUMPDEST PUSH1 0x3 SLOAD PUSH1 0x1 PUSH1 0x1 PUSH1 0xA0 SHL SUB AND CALLER EQ PUSH2 0x9C4 JUMPI PUSH1 0x40 MLOAD PUSH3 0x461BCD PUSH1 0xE5 SHL DUP2 MSTORE PUSH1 0x4 ADD PUSH2 0x77A SWAP1 PUSH2 0x2674 JUMP JUMPDEST PUSH1 0xB SLOAD PUSH1 0x40 MLOAD PUSH1 0x1 PUSH1 0x1 PUSH1 0xA0 SHL SUB PUSH4 0x1000000 SWAP1 SWAP3 DIV SWAP2 SWAP1 SWAP2 AND SWAP1 SELFBALANCE DUP1 ISZERO PUSH2 0x8FC MUL SWAP2 PUSH1 0x0 DUP2 DUP2 DUP2 DUP6 DUP9 DUP9 CALL SWAP4 POP POP POP POP ISZERO DUP1 ISZERO PUSH2 0x82E JUMPI RETURNDATASIZE PUSH1 0x0 DUP1 RETURNDATACOPY RETURNDATASIZE PUSH1 0x0 REVERT JUMPDEST DUP1 PUSH1 0x8 SLOAD PUSH2 0xA14 DUP3 DUP3 PUSH2 0x11B5 JUMP JUMPDEST CALLVALUE LT ISZERO PUSH2 0xA34 JUMPI PUSH1 0x40 MLOAD PUSH4 0xA7924A13 PUSH1 0xE0 SHL DUP2 MSTORE PUSH1 0x4 ADD PUSH1 0x40 MLOAD DUP1 SWAP2 SUB SWAP1 REVERT JUMPDEST DUP3 PUSH1 0xD PUSH1 0x5 PUSH2 0xA67 DUP4 DUP4 PUSH1 0x0 CALLER PUSH1 0x1 PUSH1 0x1 PUSH1 0xA0 SHL SUB AND PUSH1 0x1 PUSH1 0x1 PUSH1 0xA0 SHL SUB AND DUP2 MSTORE PUSH1 0x20 ADD SWAP1 DUP2 MSTORE PUSH1 0x20 ADD PUSH1 0x0 KECCAK256 SLOAD PUSH2 0x11C8 JUMP JUMPDEST GT ISZERO PUSH2 0xA86 JUMPI PUSH1 0x40 MLOAD PUSH4 0x3814AF1 PUSH1 0xE6 SHL DUP2 MSTORE PUSH1 0x4 ADD PUSH1 0x40 MLOAD DUP1 SWAP2 SUB SWAP1 REVERT JUMPDEST PUSH1 0xB SLOAD PUSH2 0x100 SWAP1 DIV PUSH1 0xFF AND PUSH2 0xAAE JUMPI PUSH1 0x40 MLOAD PUSH4 0xE6DD1A31 PUSH1 0xE0 SHL DUP2 MSTORE PUSH1 0x4 ADD PUSH1 0x40 MLOAD DUP1 SWAP2 SUB SWAP1 REVERT JUMPDEST PUSH2 0xAB9 DUP6 PUSH1 0xD PUSH2 0x11D4 JUMP JUMPDEST POP POP POP POP POP JUMP JUMPDEST PUSH1 0x1 PUSH1 0x1 PUSH1 0xA0 SHL SUB DUP6 AND CALLER EQ DUP1 PUSH2 0xADC JUMPI POP PUSH2 0xADC DUP6 CALLER PUSH2 0x62F JUMP JUMPDEST PUSH2 0xB43 JUMPI PUSH1 0x40 MLOAD PUSH3 0x461BCD PUSH1 0xE5 SHL DUP2 MSTORE PUSH1 0x20 PUSH1 0x4 DUP3 ADD MSTORE PUSH1 0x32 PUSH1 0x24 DUP3 ADD MSTORE PUSH32 0x455243313135353A207472616E736665722063616C6C6572206973206E6F7420 PUSH1 0x44 DUP3 ADD MSTORE PUSH18 0x1BDDDB995C881B9BDC88185C1C1C9BDD9959 PUSH1 0x72 SHL PUSH1 0x64 DUP3 ADD MSTORE PUSH1 0x84 ADD PUSH2 0x77A JUMP JUMPDEST PUSH2 0xAB9 DUP6 DUP6 DUP6 DUP6 DUP6 PUSH2 0x1229 JUMP JUMPDEST PUSH1 0x3 SLOAD PUSH1 0x1 PUSH1 0x1 PUSH1 0xA0 SHL SUB AND CALLER EQ PUSH2 0xB7A JUMPI PUSH1 0x40 MLOAD PUSH3 0x461BCD PUSH1 0xE5 SHL DUP2 MSTORE PUSH1 0x4 ADD PUSH2 0x77A SWAP1 PUSH2 0x2674 JUMP JUMPDEST PUSH1 0x7 SSTORE JUMP JUMPDEST PUSH1 0x3 SLOAD PUSH1 0x1 PUSH1 0x1 PUSH1 0xA0 SHL SUB AND CALLER EQ PUSH2 0xBA9 JUMPI PUSH1 0x40 MLOAD PUSH3 0x461BCD PUSH1 0xE5 SHL DUP2 MSTORE PUSH1 0x4 ADD PUSH2 0x77A SWAP1 PUSH2 0x2674 JUMP JUMPDEST PUSH2 0xBB1 PUSH2 0x13D3 JUMP JUMPDEST JUMP JUMPDEST PUSH1 0x1 PUSH1 0x1 PUSH1 0xA0 SHL SUB DUP2 AND PUSH1 0x0 SWAP1 DUP2 MSTORE PUSH1 0xC PUSH1 0x20 MSTORE PUSH1 0x40 DUP2 KECCAK256 SLOAD PUSH2 0x7F5 SWAP1 PUSH1 0x5 PUSH2 0x26FA JUMP JUMPDEST DUP3 PUSH1 0x7 SLOAD PUSH2 0xBE5 DUP3 DUP3 PUSH2 0x11B5 JUMP JUMPDEST CALLVALUE LT ISZERO PUSH2 0xC05 JUMPI PUSH1 0x40 MLOAD PUSH4 0xA7924A13 PUSH1 0xE0 SHL DUP2 MSTORE PUSH1 0x4 ADD PUSH1 0x40 MLOAD DUP1 SWAP2 SUB SWAP1 REVERT JUMPDEST DUP5 PUSH1 0xC PUSH1 0x5 PUSH2 0xC38 DUP4 DUP4 PUSH1 0x0 CALLER PUSH1 0x1 PUSH1 0x1 PUSH1 0xA0 SHL SUB AND PUSH1 0x1 PUSH1 0x1 PUSH1 0xA0 SHL SUB AND DUP2 MSTORE PUSH1 0x20 ADD SWAP1 DUP2 MSTORE PUSH1 0x20 ADD PUSH1 0x0 KECCAK256 SLOAD PUSH2 0x11C8 JUMP JUMPDEST GT ISZERO PUSH2 0xC57 JUMPI PUSH1 0x40 MLOAD PUSH4 0x3814AF1 PUSH1 0xE6 SHL DUP2 MSTORE PUSH1 0x4 ADD PUSH1 0x40 MLOAD DUP1 SWAP2 SUB SWAP1 REVERT JUMPDEST PUSH1 0xB SLOAD PUSH1 0xFF AND PUSH2 0xC7A JUMPI PUSH1 0x40 MLOAD PUSH4 0xE6DD1A31 PUSH1 0xE0 SHL DUP2 MSTORE PUSH1 0x4 ADD PUSH1 0x40 MLOAD DUP1 SWAP2 SUB SWAP1 REVERT JUMPDEST PUSH1 0x40 MLOAD PUSH12 0xFFFFFFFFFFFFFFFFFFFFFFFF NOT CALLER PUSH1 0x60 SHL AND PUSH1 0x20 DUP3 ADD MSTORE PUSH1 0x0 SWAP1 PUSH1 0x34 ADD PUSH1 0x40 MLOAD PUSH1 0x20 DUP2 DUP4 SUB SUB DUP2 MSTORE SWAP1 PUSH1 0x40 MSTORE DUP1 MLOAD SWAP1 PUSH1 0x20 ADD KECCAK256 SWAP1 POP PUSH2 0xCF4 DUP8 DUP8 DUP1 DUP1 PUSH1 0x20 MUL PUSH1 0x20 ADD PUSH1 0x40 MLOAD SWAP1 DUP2 ADD PUSH1 0x40 MSTORE DUP1 SWAP4 SWAP3 SWAP2 SWAP1 DUP2 DUP2 MSTORE PUSH1 0x20 ADD DUP4 DUP4 PUSH1 0x20 MUL DUP1 DUP3 DUP5 CALLDATACOPY PUSH1 0x0 SWAP3 ADD SWAP2 SWAP1 SWAP2 MSTORE POP POP PUSH1 0xA SLOAD SWAP2 POP DUP5 SWAP1 POP PUSH2 0x1470 JUMP JUMPDEST PUSH2 0xD11 JUMPI PUSH1 0x40 MLOAD PUSH4 0x522FC3BD PUSH1 0xE0 SHL DUP2 MSTORE PUSH1 0x4 ADD PUSH1 0x40 MLOAD DUP1 SWAP2 SUB SWAP1 REVERT JUMPDEST PUSH2 0xD1C DUP9 PUSH1 0xC PUSH2 0x11D4 JUMP JUMPDEST POP POP POP POP POP POP POP POP JUMP JUMPDEST PUSH1 0x60 DUP2 MLOAD DUP4 MLOAD EQ PUSH2 0xD8B JUMPI PUSH1 0x40 MLOAD PUSH3 0x461BCD PUSH1 0xE5 SHL DUP2 MSTORE PUSH1 0x20 PUSH1 0x4 DUP3 ADD MSTORE PUSH1 0x29 PUSH1 0x24 DUP3 ADD MSTORE PUSH32 0x455243313135353A206163636F756E747320616E6420696473206C656E677468 PUSH1 0x44 DUP3 ADD MSTORE PUSH9 0x40DAD2E6DAC2E8C6D PUSH1 0xBB SHL PUSH1 0x64 DUP3 ADD MSTORE PUSH1 0x84 ADD PUSH2 0x77A JUMP JUMPDEST PUSH1 0x0 DUP4 MLOAD PUSH8 0xFFFFFFFFFFFFFFFF DUP2 GT ISZERO PUSH2 0xDA7 JUMPI PUSH2 0xDA7 PUSH2 0x207C JUMP JUMPDEST PUSH1 0x40 MLOAD SWAP1 DUP1 DUP3 MSTORE DUP1 PUSH1 0x20 MUL PUSH1 0x20 ADD DUP3 ADD PUSH1 0x40 MSTORE DUP1 ISZERO PUSH2 0xDD0 JUMPI DUP2 PUSH1 0x20 ADD PUSH1 0x20 DUP3 MUL DUP1 CALLDATASIZE DUP4 CALLDATACOPY ADD SWAP1 POP JUMPDEST POP SWAP1 POP PUSH1 0x0 JUMPDEST DUP5 MLOAD DUP2 LT ISZERO PUSH2 0xE48 JUMPI PUSH2 0xE1B DUP6 DUP3 DUP2 MLOAD DUP2 LT PUSH2 0xDF4 JUMPI PUSH2 0xDF4 PUSH2 0x2711 JUMP JUMPDEST PUSH1 0x20 MUL PUSH1 0x20 ADD ADD MLOAD DUP6 DUP4 DUP2 MLOAD DUP2 LT PUSH2 0xE0E JUMPI PUSH2 0xE0E PUSH2 0x2711 JUMP JUMPDEST PUSH1 0x20 MUL PUSH1 0x20 ADD ADD MLOAD PUSH2 0x712 JUMP JUMPDEST DUP3 DUP3 DUP2 MLOAD DUP2 LT PUSH2 0xE2D JUMPI PUSH2 0xE2D PUSH2 0x2711 JUMP JUMPDEST PUSH1 0x20 SWAP1 DUP2 MUL SWAP2 SWAP1 SWAP2 ADD ADD MSTORE PUSH2 0xE41 DUP2 PUSH2 0x2727 JUMP JUMPDEST SWAP1 POP PUSH2 0xDD6 JUMP JUMPDEST POP SWAP4 SWAP3 POP POP POP JUMP JUMPDEST PUSH1 0x1 PUSH1 0x1 PUSH1 0xA0 SHL SUB DUP4 AND CALLER EQ DUP1 PUSH2 0xE6C JUMPI POP PUSH2 0xE6C DUP4 CALLER PUSH2 0x62F JUMP JUMPDEST PUSH2 0xE88 JUMPI PUSH1 0x40 MLOAD PUSH3 0x461BCD PUSH1 0xE5 SHL DUP2 MSTORE PUSH1 0x4 ADD PUSH2 0x77A SWAP1 PUSH2 0x2742 JUMP JUMPDEST PUSH2 0xE93 DUP4 DUP4 DUP4 PUSH2 0x1486 JUMP JUMPDEST POP POP POP JUMP JUMPDEST PUSH1 0x1 PUSH1 0x1 PUSH1 0xA0 SHL SUB DUP2 AND PUSH1 0x0 SWAP1 DUP2 MSTORE PUSH1 0xD PUSH1 0x20 MSTORE PUSH1 0x40 DUP2 KECCAK256 SLOAD PUSH2 0x7F5 SWAP1 PUSH1 0x5 PUSH2 0x26FA JUMP JUMPDEST PUSH1 0x3 SLOAD PUSH1 0x1 PUSH1 0x1 PUSH1 0xA0 SHL SUB AND CALLER EQ PUSH2 0xEE6 JUMPI PUSH1 0x40 MLOAD PUSH3 0x461BCD PUSH1 0xE5 SHL DUP2 MSTORE PUSH1 0x4 ADD PUSH2 0x77A SWAP1 PUSH2 0x2674 JUMP JUMPDEST PUSH2 0xBB1 PUSH1 0x0 PUSH2 0x1614 JUMP JUMPDEST PUSH1 0x3 SLOAD PUSH1 0x1 PUSH1 0x1 PUSH1 0xA0 SHL SUB AND CALLER EQ PUSH2 0xF1A JUMPI PUSH1 0x40 MLOAD PUSH3 0x461BCD PUSH1 0xE5 SHL DUP2 MSTORE PUSH1 0x4 ADD PUSH2 0x77A SWAP1 PUSH2 0x2674 JUMP JUMPDEST PUSH1 0xB DUP1 SLOAD PUSH1 0xFF NOT DUP2 AND PUSH1 0xFF SWAP1 SWAP2 AND ISZERO OR SWAP1 SSTORE JUMP JUMPDEST PUSH1 0x3 SLOAD PUSH1 0x1 PUSH1 0x1 PUSH1 0xA0 SHL SUB AND CALLER EQ PUSH2 0xF58 JUMPI PUSH1 0x40 MLOAD PUSH3 0x461BCD PUSH1 0xE5 SHL DUP2 MSTORE PUSH1 0x4 ADD PUSH2 0x77A SWAP1 PUSH2 0x2674 JUMP JUMPDEST PUSH1 0xA SSTORE JUMP JUMPDEST PUSH1 0x3 SLOAD PUSH1 0x1 PUSH1 0x1 PUSH1 0xA0 SHL SUB AND CALLER EQ PUSH2 0xF87 JUMPI PUSH1 0x40 MLOAD PUSH3 0x461BCD PUSH1 0xE5 SHL DUP2 MSTORE PUSH1 0x4 ADD PUSH2 0x77A SWAP1 PUSH2 0x2674 JUMP JUMPDEST PUSH2 0xBB1 PUSH2 0x1666 JUMP JUMPDEST PUSH1 0x3 SLOAD PUSH1 0x1 PUSH1 0x1 PUSH1 0xA0 SHL SUB AND CALLER EQ PUSH2 0xFB9 JUMPI PUSH1 0x40 MLOAD PUSH3 0x461BCD PUSH1 0xE5 SHL DUP2 MSTORE PUSH1 0x4 ADD PUSH2 0x77A SWAP1 PUSH2 0x2674 JUMP JUMPDEST PUSH1 0xB SLOAD PUSH3 0x10000 SWAP1 DIV PUSH1 0xFF AND ISZERO PUSH2 0xFE3 JUMPI PUSH1 0x40 MLOAD PUSH4 0x7F00E5DD PUSH1 0xE1 SHL DUP2 MSTORE PUSH1 0x4 ADD PUSH1 0x40 MLOAD DUP1 SWAP2 SUB SWAP1 REVERT JUMPDEST PUSH1 0xB DUP1 SLOAD PUSH3 0xFF0000 NOT AND PUSH3 0x10000 OR SWAP1 SSTORE PUSH1 0x9 SLOAD PUSH2 0x1002 SWAP1 PUSH1 0x32 PUSH2 0x11C8 JUMP JUMPDEST PUSH1 0x9 SSTORE PUSH1 0xB SLOAD PUSH1 0x40 DUP1 MLOAD PUSH1 0x20 DUP2 ADD SWAP1 SWAP2 MSTORE PUSH1 0x0 DUP2 MSTORE PUSH2 0xBB1 SWAP2 PUSH4 0x1000000 SWAP1 DIV PUSH1 0x1 PUSH1 0x1 PUSH1 0xA0 SHL SUB AND SWAP1 PUSH1 0x1 SWAP1 PUSH1 0x32 SWAP1 PUSH2 0x16EE JUMP JUMPDEST PUSH1 0x6 DUP1 SLOAD PUSH2 0x83E SWAP1 PUSH2 0x26A9 JUMP JUMPDEST PUSH2 0x104F CALLER DUP4 DUP4 PUSH2 0x17FE JUMP JUMPDEST POP POP JUMP JUMPDEST PUSH1 0x3 SLOAD PUSH1 0x1 PUSH1 0x1 PUSH1 0xA0 SHL SUB AND CALLER EQ PUSH2 0x107D JUMPI PUSH1 0x40 MLOAD PUSH3 0x461BCD PUSH1 0xE5 SHL DUP2 MSTORE PUSH1 0x4 ADD PUSH2 0x77A SWAP1 PUSH2 0x2674 JUMP JUMPDEST PUSH1 0x8 SSTORE JUMP JUMPDEST PUSH1 0x1 PUSH1 0x1 PUSH1 0xA0 SHL SUB DUP6 AND CALLER EQ DUP1 PUSH2 0x109E JUMPI POP PUSH2 0x109E DUP6 CALLER PUSH2 0x62F JUMP JUMPDEST PUSH2 0x10BA JUMPI PUSH1 0x40 MLOAD PUSH3 0x461BCD PUSH1 0xE5 SHL DUP2 MSTORE PUSH1 0x4 ADD PUSH2 0x77A SWAP1 PUSH2 0x2742 JUMP JUMPDEST PUSH2 0xAB9 DUP6 DUP6 DUP6 DUP6 DUP6 PUSH2 0x18DF JUMP JUMPDEST PUSH1 0x3 SLOAD PUSH1 0x1 PUSH1 0x1 PUSH1 0xA0 SHL SUB AND CALLER EQ PUSH2 0x10F1 JUMPI PUSH1 0x40 MLOAD PUSH3 0x461BCD PUSH1 0xE5 SHL DUP2 MSTORE PUSH1 0x4 ADD PUSH2 0x77A SWAP1 PUSH2 0x2674 JUMP JUMPDEST PUSH1 0x1 PUSH1 0x1 PUSH1 0xA0 SHL SUB DUP2 AND PUSH2 0x1156 JUMPI PUSH1 0x40 MLOAD PUSH3 0x461BCD PUSH1 0xE5 SHL DUP2 MSTORE PUSH1 0x20 PUSH1 0x4 DUP3 ADD MSTORE PUSH1 0x26 PUSH1 0x24 DUP3 ADD MSTORE PUSH32 0x4F776E61626C653A206E6577206F776E657220697320746865207A65726F2061 PUSH1 0x44 DUP3 ADD MSTORE PUSH6 0x646472657373 PUSH1 0xD0 SHL PUSH1 0x64 DUP3 ADD MSTORE PUSH1 0x84 ADD PUSH2 0x77A JUMP JUMPDEST PUSH2 0x82E DUP2 PUSH2 0x1614 JUMP JUMPDEST PUSH1 0x1 PUSH1 0x1 PUSH1 0xA0 SHL SUB DUP4 AND CALLER EQ DUP1 PUSH2 0x117B JUMPI POP PUSH2 0x117B DUP4 CALLER PUSH2 0x62F JUMP JUMPDEST PUSH2 0x1197 JUMPI PUSH1 0x40 MLOAD PUSH3 0x461BCD PUSH1 0xE5 SHL DUP2 MSTORE PUSH1 0x4 ADD PUSH2 0x77A SWAP1 PUSH2 0x2742 JUMP JUMPDEST PUSH2 0xE93 DUP4 DUP4 DUP4 PUSH2 0x19FC JUMP JUMPDEST DUP1 MLOAD PUSH2 0x104F SWAP1 PUSH1 0x2 SWAP1 PUSH1 0x20 DUP5 ADD SWAP1 PUSH2 0x1F6A JUMP JUMPDEST PUSH1 0x0 PUSH2 0x11C1 DUP3 DUP5 PUSH2 0x278B JUMP JUMPDEST SWAP4 SWAP3 POP POP POP JUMP JUMPDEST PUSH1 0x0 PUSH2 0x11C1 DUP3 DUP5 PUSH2 0x27AA JUMP JUMPDEST PUSH2 0x11E0 PUSH1 0x9 SLOAD DUP4 PUSH2 0x11C8 JUMP JUMPDEST PUSH1 0x9 SSTORE CALLER PUSH1 0x0 SWAP1 DUP2 MSTORE PUSH1 0x20 DUP3 SWAP1 MSTORE PUSH1 0x40 SWAP1 KECCAK256 SLOAD PUSH2 0x11FD SWAP1 DUP4 PUSH2 0x11C8 JUMP JUMPDEST CALLER PUSH1 0x0 DUP2 DUP2 MSTORE PUSH1 0x20 DUP5 DUP2 MSTORE PUSH1 0x40 DUP1 DUP4 KECCAK256 SWAP5 SWAP1 SWAP5 SSTORE DUP4 MLOAD SWAP1 DUP2 ADD SWAP1 SWAP4 MSTORE DUP3 MSTORE PUSH2 0x104F SWAP2 PUSH1 0x1 SWAP1 DUP6 SWAP1 PUSH2 0x16EE JUMP JUMPDEST DUP2 MLOAD DUP4 MLOAD EQ PUSH2 0x124A JUMPI PUSH1 0x40 MLOAD PUSH3 0x461BCD PUSH1 0xE5 SHL DUP2 MSTORE PUSH1 0x4 ADD PUSH2 0x77A SWAP1 PUSH2 0x27C2 JUMP JUMPDEST PUSH1 0x1 PUSH1 0x1 PUSH1 0xA0 SHL SUB DUP5 AND PUSH2 0x1270 JUMPI PUSH1 0x40 MLOAD PUSH3 0x461BCD PUSH1 0xE5 SHL DUP2 MSTORE PUSH1 0x4 ADD PUSH2 0x77A SWAP1 PUSH2 0x280A JUMP JUMPDEST CALLER PUSH2 0x127F DUP2 DUP8 DUP8 DUP8 DUP8 DUP8 PUSH2 0x1AFD JUMP JUMPDEST PUSH1 0x0 JUMPDEST DUP5 MLOAD DUP2 LT ISZERO PUSH2 0x1365 JUMPI PUSH1 0x0 DUP6 DUP3 DUP2 MLOAD DUP2 LT PUSH2 0x129F JUMPI PUSH2 0x129F PUSH2 0x2711 JUMP JUMPDEST PUSH1 0x20 MUL PUSH1 0x20 ADD ADD MLOAD SWAP1 POP PUSH1 0x0 DUP6 DUP4 DUP2 MLOAD DUP2 LT PUSH2 0x12BD JUMPI PUSH2 0x12BD PUSH2 0x2711 JUMP JUMPDEST PUSH1 0x20 SWAP1 DUP2 MUL SWAP2 SWAP1 SWAP2 ADD DUP2 ADD MLOAD PUSH1 0x0 DUP5 DUP2 MSTORE DUP1 DUP4 MSTORE PUSH1 0x40 DUP1 DUP3 KECCAK256 PUSH1 0x1 PUSH1 0x1 PUSH1 0xA0 SHL SUB DUP15 AND DUP4 MSTORE SWAP1 SWAP4 MSTORE SWAP2 SWAP1 SWAP2 KECCAK256 SLOAD SWAP1 SWAP2 POP DUP2 DUP2 LT ISZERO PUSH2 0x130D JUMPI PUSH1 0x40 MLOAD PUSH3 0x461BCD PUSH1 0xE5 SHL DUP2 MSTORE PUSH1 0x4 ADD PUSH2 0x77A SWAP1 PUSH2 0x284F JUMP JUMPDEST PUSH1 0x0 DUP4 DUP2 MSTORE PUSH1 0x20 DUP2 DUP2 MSTORE PUSH1 0x40 DUP1 DUP4 KECCAK256 PUSH1 0x1 PUSH1 0x1 PUSH1 0xA0 SHL SUB DUP15 DUP2 AND DUP6 MSTORE SWAP3 MSTORE DUP1 DUP4 KECCAK256 DUP6 DUP6 SUB SWAP1 SSTORE SWAP1 DUP12 AND DUP3 MSTORE DUP2 KECCAK256 DUP1 SLOAD DUP5 SWAP3 SWAP1 PUSH2 0x134A SWAP1 DUP5 SWAP1 PUSH2 0x27AA JUMP JUMPDEST SWAP3 POP POP DUP2 SWAP1 SSTORE POP POP POP POP DUP1 PUSH2 0x135E SWAP1 PUSH2 0x2727 JUMP JUMPDEST SWAP1 POP PUSH2 0x1282 JUMP JUMPDEST POP DUP5 PUSH1 0x1 PUSH1 0x1 PUSH1 0xA0 SHL SUB AND DUP7 PUSH1 0x1 PUSH1 0x1 PUSH1 0xA0 SHL SUB AND DUP3 PUSH1 0x1 PUSH1 0x1 PUSH1 0xA0 SHL SUB AND PUSH32 0x4A39DC06D4C0DBC64B70AF90FD698A233A518AA5D07E595D983B8C0526C8F7FB DUP8 DUP8 PUSH1 0x40 MLOAD PUSH2 0x13B5 SWAP3 SWAP2 SWAP1 PUSH2 0x2899 JUMP JUMPDEST PUSH1 0x40 MLOAD DUP1 SWAP2 SUB SWAP1 LOG4 PUSH2 0x13CB DUP2 DUP8 DUP8 DUP8 DUP8 DUP8 PUSH2 0x1B58 JUMP JUMPDEST POP POP POP POP POP POP JUMP JUMPDEST PUSH1 0x3 SLOAD PUSH1 0x1 PUSH1 0xA0 SHL SWAP1 DIV PUSH1 0xFF AND PUSH2 0x1423 JUMPI PUSH1 0x40 MLOAD PUSH3 0x461BCD PUSH1 0xE5 SHL DUP2 MSTORE PUSH1 0x20 PUSH1 0x4 DUP3 ADD MSTORE PUSH1 0x14 PUSH1 0x24 DUP3 ADD MSTORE PUSH20 0x14185D5CD8589B194E881B9BDD081C185D5CD959 PUSH1 0x62 SHL PUSH1 0x44 DUP3 ADD MSTORE PUSH1 0x64 ADD PUSH2 0x77A JUMP JUMPDEST PUSH1 0x3 DUP1 SLOAD PUSH1 0xFF PUSH1 0xA0 SHL NOT AND SWAP1 SSTORE PUSH32 0x5DB9EE0A495BF2E6FF9C91A7834C1BA4FDD244A5E8AA4E537BD38AEAE4B073AA CALLER JUMPDEST PUSH1 0x40 MLOAD PUSH1 0x1 PUSH1 0x1 PUSH1 0xA0 SHL SUB SWAP1 SWAP2 AND DUP2 MSTORE PUSH1 0x20 ADD PUSH1 0x40 MLOAD DUP1 SWAP2 SUB SWAP1 LOG1 JUMP JUMPDEST PUSH1 0x0 DUP3 PUSH2 0x147D DUP6 DUP5 PUSH2 0x1CB4 JUMP JUMPDEST EQ SWAP5 SWAP4 POP POP POP POP JUMP JUMPDEST PUSH1 0x1 PUSH1 0x1 PUSH1 0xA0 SHL SUB DUP4 AND PUSH2 0x14AC JUMPI PUSH1 0x40 MLOAD PUSH3 0x461BCD PUSH1 0xE5 SHL DUP2 MSTORE PUSH1 0x4 ADD PUSH2 0x77A SWAP1 PUSH2 0x28C7 JUMP JUMPDEST DUP1 MLOAD DUP3 MLOAD EQ PUSH2 0x14CD JUMPI PUSH1 0x40 MLOAD PUSH3 0x461BCD PUSH1 0xE5 SHL DUP2 MSTORE PUSH1 0x4 ADD PUSH2 0x77A SWAP1 PUSH2 0x27C2 JUMP JUMPDEST PUSH1 0x0 CALLER SWAP1 POP PUSH2 0x14F0 DUP2 DUP6 PUSH1 0x0 DUP7 DUP7 PUSH1 0x40 MLOAD DUP1 PUSH1 0x20 ADD PUSH1 0x40 MSTORE DUP1 PUSH1 0x0 DUP2 MSTORE POP PUSH2 0x1AFD JUMP JUMPDEST PUSH1 0x0 JUMPDEST DUP4 MLOAD DUP2 LT ISZERO PUSH2 0x15B5 JUMPI PUSH1 0x0 DUP5 DUP3 DUP2 MLOAD DUP2 LT PUSH2 0x1510 JUMPI PUSH2 0x1510 PUSH2 0x2711 JUMP JUMPDEST PUSH1 0x20 MUL PUSH1 0x20 ADD ADD MLOAD SWAP1 POP PUSH1 0x0 DUP5 DUP4 DUP2 MLOAD DUP2 LT PUSH2 0x152E JUMPI PUSH2 0x152E PUSH2 0x2711 JUMP JUMPDEST PUSH1 0x20 SWAP1 DUP2 MUL SWAP2 SWAP1 SWAP2 ADD DUP2 ADD MLOAD PUSH1 0x0 DUP5 DUP2 MSTORE DUP1 DUP4 MSTORE PUSH1 0x40 DUP1 DUP3 KECCAK256 PUSH1 0x1 PUSH1 0x1 PUSH1 0xA0 SHL SUB DUP13 AND DUP4 MSTORE SWAP1 SWAP4 MSTORE SWAP2 SWAP1 SWAP2 KECCAK256 SLOAD SWAP1 SWAP2 POP DUP2 DUP2 LT ISZERO PUSH2 0x157E JUMPI PUSH1 0x40 MLOAD PUSH3 0x461BCD PUSH1 0xE5 SHL DUP2 MSTORE PUSH1 0x4 ADD PUSH2 0x77A SWAP1 PUSH2 0x290A JUMP JUMPDEST PUSH1 0x0 SWAP3 DUP4 MSTORE PUSH1 0x20 DUP4 DUP2 MSTORE PUSH1 0x40 DUP1 DUP6 KECCAK256 PUSH1 0x1 PUSH1 0x1 PUSH1 0xA0 SHL SUB DUP12 AND DUP7 MSTORE SWAP1 SWAP2 MSTORE SWAP1 SWAP3 KECCAK256 SWAP2 SUB SWAP1 SSTORE DUP1 PUSH2 0x15AD DUP2 PUSH2 0x2727 JUMP JUMPDEST SWAP2 POP POP PUSH2 0x14F3 JUMP JUMPDEST POP PUSH1 0x0 PUSH1 0x1 PUSH1 0x1 PUSH1 0xA0 SHL SUB AND DUP5 PUSH1 0x1 PUSH1 0x1 PUSH1 0xA0 SHL SUB AND DUP3 PUSH1 0x1 PUSH1 0x1 PUSH1 0xA0 SHL SUB AND PUSH32 0x4A39DC06D4C0DBC64B70AF90FD698A233A518AA5D07E595D983B8C0526C8F7FB DUP7 DUP7 PUSH1 0x40 MLOAD PUSH2 0x1606 SWAP3 SWAP2 SWAP1 PUSH2 0x2899 JUMP JUMPDEST PUSH1 0x40 MLOAD DUP1 SWAP2 SUB SWAP1 LOG4 POP POP POP POP JUMP JUMPDEST PUSH1 0x3 DUP1 SLOAD PUSH1 0x1 PUSH1 0x1 PUSH1 0xA0 SHL SUB DUP4 DUP2 AND PUSH1 0x1 PUSH1 0x1 PUSH1 0xA0 SHL SUB NOT DUP4 AND DUP2 OR SWAP1 SWAP4 SSTORE PUSH1 0x40 MLOAD SWAP2 AND SWAP2 SWAP1 DUP3 SWAP1 PUSH32 0x8BE0079C531659141344CD1FD0A4F28419497F9722A3DAAFE3B4186F6B6457E0 SWAP1 PUSH1 0x0 SWAP1 LOG3 POP POP JUMP JUMPDEST PUSH1 0x3 SLOAD PUSH1 0x1 PUSH1 0xA0 SHL SWAP1 DIV PUSH1 0xFF AND ISZERO PUSH2 0x16B3 JUMPI PUSH1 0x40 MLOAD PUSH3 0x461BCD PUSH1 0xE5 SHL DUP2 MSTORE PUSH1 0x20 PUSH1 0x4 DUP3 ADD MSTORE PUSH1 0x10 PUSH1 0x24 DUP3 ADD MSTORE PUSH16 0x14185D5CD8589B194E881C185D5CD959 PUSH1 0x82 SHL PUSH1 0x44 DUP3 ADD MSTORE PUSH1 0x64 ADD PUSH2 0x77A JUMP JUMPDEST PUSH1 0x3 DUP1 SLOAD PUSH1 0xFF PUSH1 0xA0 SHL NOT AND PUSH1 0x1 PUSH1 0xA0 SHL OR SWAP1 SSTORE PUSH32 0x62E78CEA01BEE320CD4E420270B5EA74000D11B0C9F74754EBDBFC544B05A258 PUSH2 0x1453 CALLER SWAP1 JUMP JUMPDEST PUSH1 0x1 PUSH1 0x1 PUSH1 0xA0 SHL SUB DUP5 AND PUSH2 0x174E JUMPI PUSH1 0x40 MLOAD PUSH3 0x461BCD PUSH1 0xE5 SHL DUP2 MSTORE PUSH1 0x20 PUSH1 0x4 DUP3 ADD MSTORE PUSH1 0x21 PUSH1 0x24 DUP3 ADD MSTORE PUSH32 0x455243313135353A206D696E7420746F20746865207A65726F20616464726573 PUSH1 0x44 DUP3 ADD MSTORE PUSH1 0x73 PUSH1 0xF8 SHL PUSH1 0x64 DUP3 ADD MSTORE PUSH1 0x84 ADD PUSH2 0x77A JUMP JUMPDEST CALLER PUSH2 0x176E DUP2 PUSH1 0x0 DUP8 PUSH2 0x175F DUP9 PUSH2 0x1D58 JUMP JUMPDEST PUSH2 0x1768 DUP9 PUSH2 0x1D58 JUMP JUMPDEST DUP8 PUSH2 0x1AFD JUMP JUMPDEST PUSH1 0x0 DUP5 DUP2 MSTORE PUSH1 0x20 DUP2 DUP2 MSTORE PUSH1 0x40 DUP1 DUP4 KECCAK256 PUSH1 0x1 PUSH1 0x1 PUSH1 0xA0 SHL SUB DUP10 AND DUP5 MSTORE SWAP1 SWAP2 MSTORE DUP2 KECCAK256 DUP1 SLOAD DUP6 SWAP3 SWAP1 PUSH2 0x179E SWAP1 DUP5 SWAP1 PUSH2 0x27AA JUMP JUMPDEST SWAP1 SWAP2 SSTORE POP POP PUSH1 0x40 DUP1 MLOAD DUP6 DUP2 MSTORE PUSH1 0x20 DUP2 ADD DUP6 SWAP1 MSTORE PUSH1 0x1 PUSH1 0x1 PUSH1 0xA0 SHL SUB DUP1 DUP9 AND SWAP3 PUSH1 0x0 SWAP3 SWAP2 DUP6 AND SWAP2 PUSH32 0xC3D58168C5AE7397731D063D5BBF3D657854427343F4C083240F7AACAA2D0F62 SWAP2 ADD PUSH1 0x40 MLOAD DUP1 SWAP2 SUB SWAP1 LOG4 PUSH2 0xAB9 DUP2 PUSH1 0x0 DUP8 DUP8 DUP8 DUP8 PUSH2 0x1DA3 JUMP JUMPDEST DUP2 PUSH1 0x1 PUSH1 0x1 PUSH1 0xA0 SHL SUB AND DUP4 PUSH1 0x1 PUSH1 0x1 PUSH1 0xA0 SHL SUB AND EQ ISZERO PUSH2 0x1872 JUMPI PUSH1 0x40 MLOAD PUSH3 0x461BCD PUSH1 0xE5 SHL DUP2 MSTORE PUSH1 0x20 PUSH1 0x4 DUP3 ADD MSTORE PUSH1 0x29 PUSH1 0x24 DUP3 ADD MSTORE PUSH32 0x455243313135353A2073657474696E6720617070726F76616C20737461747573 PUSH1 0x44 DUP3 ADD MSTORE PUSH9 0x103337B91039B2B633 PUSH1 0xB9 SHL PUSH1 0x64 DUP3 ADD MSTORE PUSH1 0x84 ADD PUSH2 0x77A JUMP JUMPDEST PUSH1 0x1 PUSH1 0x1 PUSH1 0xA0 SHL SUB DUP4 DUP2 AND PUSH1 0x0 DUP2 DUP2 MSTORE PUSH1 0x1 PUSH1 0x20 SWAP1 DUP2 MSTORE PUSH1 0x40 DUP1 DUP4 KECCAK256 SWAP5 DUP8 AND DUP1 DUP5 MSTORE SWAP5 DUP3 MSTORE SWAP2 DUP3 SWAP1 KECCAK256 DUP1 SLOAD PUSH1 0xFF NOT AND DUP7 ISZERO ISZERO SWAP1 DUP2 OR SWAP1 SWAP2 SSTORE SWAP2 MLOAD SWAP2 DUP3 MSTORE PUSH32 0x17307EAB39AB6107E8899845AD3D59BD9653F200F220920489CA2B5937696C31 SWAP2 ADD PUSH1 0x40 MLOAD DUP1 SWAP2 SUB SWAP1 LOG3 POP POP POP JUMP JUMPDEST PUSH1 0x1 PUSH1 0x1 PUSH1 0xA0 SHL SUB DUP5 AND PUSH2 0x1905 JUMPI PUSH1 0x40 MLOAD PUSH3 0x461BCD PUSH1 0xE5 SHL DUP2 MSTORE PUSH1 0x4 ADD PUSH2 0x77A SWAP1 PUSH2 0x280A JUMP JUMPDEST CALLER PUSH2 0x1915 DUP2 DUP8 DUP8 PUSH2 0x175F DUP9 PUSH2 0x1D58 JUMP JUMPDEST PUSH1 0x0 DUP5 DUP2 MSTORE PUSH1 0x20 DUP2 DUP2 MSTORE PUSH1 0x40 DUP1 DUP4 KECCAK256 PUSH1 0x1 PUSH1 0x1 PUSH1 0xA0 SHL SUB DUP11 AND DUP5 MSTORE SWAP1 SWAP2 MSTORE SWAP1 KECCAK256 SLOAD DUP4 DUP2 LT ISZERO PUSH2 0x1956 JUMPI PUSH1 0x40 MLOAD PUSH3 0x461BCD PUSH1 0xE5 SHL DUP2 MSTORE PUSH1 0x4 ADD PUSH2 0x77A SWAP1 PUSH2 0x284F JUMP JUMPDEST PUSH1 0x0 DUP6 DUP2 MSTORE PUSH1 0x20 DUP2 DUP2 MSTORE PUSH1 0x40 DUP1 DUP4 KECCAK256 PUSH1 0x1 PUSH1 0x1 PUSH1 0xA0 SHL SUB DUP12 DUP2 AND DUP6 MSTORE SWAP3 MSTORE DUP1 DUP4 KECCAK256 DUP8 DUP6 SUB SWAP1 SSTORE SWAP1 DUP9 AND DUP3 MSTORE DUP2 KECCAK256 DUP1 SLOAD DUP7 SWAP3 SWAP1 PUSH2 0x1993 SWAP1 DUP5 SWAP1 PUSH2 0x27AA JUMP JUMPDEST SWAP1 SWAP2 SSTORE POP POP PUSH1 0x40 DUP1 MLOAD DUP7 DUP2 MSTORE PUSH1 0x20 DUP2 ADD DUP7 SWAP1 MSTORE PUSH1 0x1 PUSH1 0x1 PUSH1 0xA0 SHL SUB DUP1 DUP10 AND SWAP3 DUP11 DUP3 AND SWAP3 SWAP2 DUP7 AND SWAP2 PUSH32 0xC3D58168C5AE7397731D063D5BBF3D657854427343F4C083240F7AACAA2D0F62 SWAP2 ADD PUSH1 0x40 MLOAD DUP1 SWAP2 SUB SWAP1 LOG4 PUSH2 0x19F3 DUP3 DUP9 DUP9 DUP9 DUP9 DUP9 PUSH2 0x1DA3 JUMP JUMPDEST POP POP POP POP POP POP POP JUMP JUMPDEST PUSH1 0x1 PUSH1 0x1 PUSH1 0xA0 SHL SUB DUP4 AND PUSH2 0x1A22 JUMPI PUSH1 0x40 MLOAD PUSH3 0x461BCD PUSH1 0xE5 SHL DUP2 MSTORE PUSH1 0x4 ADD PUSH2 0x77A SWAP1 PUSH2 0x28C7 JUMP JUMPDEST CALLER PUSH2 0x1A51 DUP2 DUP6 PUSH1 0x0 PUSH2 0x1A33 DUP8 PUSH2 0x1D58 JUMP JUMPDEST PUSH2 0x1A3C DUP8 PUSH2 0x1D58 JUMP JUMPDEST PUSH1 0x40 MLOAD DUP1 PUSH1 0x20 ADD PUSH1 0x40 MSTORE DUP1 PUSH1 0x0 DUP2 MSTORE POP PUSH2 0x1AFD JUMP JUMPDEST PUSH1 0x0 DUP4 DUP2 MSTORE PUSH1 0x20 DUP2 DUP2 MSTORE PUSH1 0x40 DUP1 DUP4 KECCAK256 PUSH1 0x1 PUSH1 0x1 PUSH1 0xA0 SHL SUB DUP9 AND DUP5 MSTORE SWAP1 SWAP2 MSTORE SWAP1 KECCAK256 SLOAD DUP3 DUP2 LT ISZERO PUSH2 0x1A92 JUMPI PUSH1 0x40 MLOAD PUSH3 0x461BCD PUSH1 0xE5 SHL DUP2 MSTORE PUSH1 0x4 ADD PUSH2 0x77A SWAP1 PUSH2 0x290A JUMP JUMPDEST PUSH1 0x0 DUP5 DUP2 MSTORE PUSH1 0x20 DUP2 DUP2 MSTORE PUSH1 0x40 DUP1 DUP4 KECCAK256 PUSH1 0x1 PUSH1 0x1 PUSH1 0xA0 SHL SUB DUP10 DUP2 AND DUP1 DUP7 MSTORE SWAP2 DUP5 MSTORE DUP3 DUP6 KECCAK256 DUP9 DUP8 SUB SWAP1 SSTORE DUP3 MLOAD DUP10 DUP2 MSTORE SWAP4 DUP5 ADD DUP9 SWAP1 MSTORE SWAP1 SWAP3 SWAP1 DUP7 AND SWAP2 PUSH32 0xC3D58168C5AE7397731D063D5BBF3D657854427343F4C083240F7AACAA2D0F62 SWAP2 ADD PUSH1 0x40 MLOAD DUP1 SWAP2 SUB SWAP1 LOG4 POP POP POP POP POP JUMP JUMPDEST PUSH1 0x3 SLOAD PUSH1 0x1 PUSH1 0xA0 SHL SWAP1 DIV PUSH1 0xFF AND ISZERO PUSH2 0x1B4A JUMPI PUSH1 0x40 MLOAD PUSH3 0x461BCD PUSH1 0xE5 SHL DUP2 MSTORE PUSH1 0x20 PUSH1 0x4 DUP3 ADD MSTORE PUSH1 0x10 PUSH1 0x24 DUP3 ADD MSTORE PUSH16 0x14185D5CD8589B194E881C185D5CD959 PUSH1 0x82 SHL PUSH1 0x44 DUP3 ADD MSTORE PUSH1 0x64 ADD PUSH2 0x77A JUMP JUMPDEST PUSH2 0x13CB DUP7 DUP7 DUP7 DUP7 DUP7 DUP7 PUSH2 0x1E5E JUMP JUMPDEST PUSH1 0x1 PUSH1 0x1 PUSH1 0xA0 SHL SUB DUP5 AND EXTCODESIZE ISZERO PUSH2 0x13CB JUMPI PUSH1 0x40 MLOAD PUSH4 0xBC197C81 PUSH1 0xE0 SHL DUP2 MSTORE PUSH1 0x1 PUSH1 0x1 PUSH1 0xA0 SHL SUB DUP6 AND SWAP1 PUSH4 0xBC197C81 SWAP1 PUSH2 0x1B9C SWAP1 DUP10 SWAP1 DUP10 SWAP1 DUP9 SWAP1 DUP9 SWAP1 DUP9 SWAP1 PUSH1 0x4 ADD PUSH2 0x294E JUMP JUMPDEST PUSH1 0x20 PUSH1 0x40 MLOAD DUP1 DUP4 SUB DUP2 PUSH1 0x0 DUP8 GAS CALL SWAP3 POP POP POP DUP1 ISZERO PUSH2 0x1BD7 JUMPI POP PUSH1 0x40 DUP1 MLOAD PUSH1 0x1F RETURNDATASIZE SWAP1 DUP2 ADD PUSH1 0x1F NOT AND DUP3 ADD SWAP1 SWAP3 MSTORE PUSH2 0x1BD4 SWAP2 DUP2 ADD SWAP1 PUSH2 0x29AC JUMP JUMPDEST PUSH1 0x1 JUMPDEST PUSH2 0x1C84 JUMPI PUSH2 0x1BE3 PUSH2 0x29C9 JUMP JUMPDEST DUP1 PUSH4 0x8C379A0 EQ ISZERO PUSH2 0x1C1D JUMPI POP PUSH2 0x1BF8 PUSH2 0x29E5 JUMP JUMPDEST DUP1 PUSH2 0x1C03 JUMPI POP PUSH2 0x1C1F JUMP JUMPDEST DUP1 PUSH1 0x40 MLOAD PUSH3 0x461BCD PUSH1 0xE5 SHL DUP2 MSTORE PUSH1 0x4 ADD PUSH2 0x77A SWAP2 SWAP1 PUSH2 0x21BB JUMP JUMPDEST POP JUMPDEST PUSH1 0x40 MLOAD PUSH3 0x461BCD PUSH1 0xE5 SHL DUP2 MSTORE PUSH1 0x20 PUSH1 0x4 DUP3 ADD MSTORE PUSH1 0x34 PUSH1 0x24 DUP3 ADD MSTORE PUSH32 0x455243313135353A207472616E7366657220746F206E6F6E2045524331313535 PUSH1 0x44 DUP3 ADD MSTORE PUSH20 0x2932B1B2B4BB32B91034B6B83632B6B2B73A32B9 PUSH1 0x61 SHL PUSH1 0x64 DUP3 ADD MSTORE PUSH1 0x84 ADD PUSH2 0x77A JUMP JUMPDEST PUSH1 0x1 PUSH1 0x1 PUSH1 0xE0 SHL SUB NOT DUP2 AND PUSH4 0xBC197C81 PUSH1 0xE0 SHL EQ PUSH2 0x19F3 JUMPI PUSH1 0x40 MLOAD PUSH3 0x461BCD PUSH1 0xE5 SHL DUP2 MSTORE PUSH1 0x4 ADD PUSH2 0x77A SWAP1 PUSH2 0x2A6F JUMP JUMPDEST PUSH1 0x0 DUP2 DUP2 JUMPDEST DUP5 MLOAD DUP2 LT ISZERO PUSH2 0xE48 JUMPI PUSH1 0x0 DUP6 DUP3 DUP2 MLOAD DUP2 LT PUSH2 0x1CD6 JUMPI PUSH2 0x1CD6 PUSH2 0x2711 JUMP JUMPDEST PUSH1 0x20 MUL PUSH1 0x20 ADD ADD MLOAD SWAP1 POP DUP1 DUP4 GT PUSH2 0x1D18 JUMPI PUSH1 0x40 DUP1 MLOAD PUSH1 0x20 DUP2 ADD DUP6 SWAP1 MSTORE SWAP1 DUP2 ADD DUP3 SWAP1 MSTORE PUSH1 0x60 ADD PUSH1 0x40 MLOAD PUSH1 0x20 DUP2 DUP4 SUB SUB DUP2 MSTORE SWAP1 PUSH1 0x40 MSTORE DUP1 MLOAD SWAP1 PUSH1 0x20 ADD KECCAK256 SWAP3 POP PUSH2 0x1D45 JUMP JUMPDEST PUSH1 0x40 DUP1 MLOAD PUSH1 0x20 DUP2 ADD DUP4 SWAP1 MSTORE SWAP1 DUP2 ADD DUP5 SWAP1 MSTORE PUSH1 0x60 ADD PUSH1 0x40 MLOAD PUSH1 0x20 DUP2 DUP4 SUB SUB DUP2 MSTORE SWAP1 PUSH1 0x40 MSTORE DUP1 MLOAD SWAP1 PUSH1 0x20 ADD KECCAK256 SWAP3 POP JUMPDEST POP DUP1 PUSH2 0x1D50 DUP2 PUSH2 0x2727 JUMP JUMPDEST SWAP2 POP POP PUSH2 0x1CB9 JUMP JUMPDEST PUSH1 0x40 DUP1 MLOAD PUSH1 0x1 DUP1 DUP3 MSTORE DUP2 DUP4 ADD SWAP1 SWAP3 MSTORE PUSH1 0x60 SWAP2 PUSH1 0x0 SWAP2 SWAP1 PUSH1 0x20 DUP1 DUP4 ADD SWAP1 DUP1 CALLDATASIZE DUP4 CALLDATACOPY ADD SWAP1 POP POP SWAP1 POP DUP3 DUP2 PUSH1 0x0 DUP2 MLOAD DUP2 LT PUSH2 0x1D92 JUMPI PUSH2 0x1D92 PUSH2 0x2711 JUMP JUMPDEST PUSH1 0x20 SWAP1 DUP2 MUL SWAP2 SWAP1 SWAP2 ADD ADD MSTORE SWAP3 SWAP2 POP POP JUMP JUMPDEST PUSH1 0x1 PUSH1 0x1 PUSH1 0xA0 SHL SUB DUP5 AND EXTCODESIZE ISZERO PUSH2 0x13CB JUMPI PUSH1 0x40 MLOAD PUSH4 0xF23A6E61 PUSH1 0xE0 SHL DUP2 MSTORE PUSH1 0x1 PUSH1 0x1 PUSH1 0xA0 SHL SUB DUP6 AND SWAP1 PUSH4 0xF23A6E61 SWAP1 PUSH2 0x1DE7 SWAP1 DUP10 SWAP1 DUP10 SWAP1 DUP9 SWAP1 DUP9 SWAP1 DUP9 SWAP1 PUSH1 0x4 ADD PUSH2 0x2AB7 JUMP JUMPDEST PUSH1 0x20 PUSH1 0x40 MLOAD DUP1 DUP4 SUB DUP2 PUSH1 0x0 DUP8 GAS CALL SWAP3 POP POP POP DUP1 ISZERO PUSH2 0x1E22 JUMPI POP PUSH1 0x40 DUP1 MLOAD PUSH1 0x1F RETURNDATASIZE SWAP1 DUP2 ADD PUSH1 0x1F NOT AND DUP3 ADD SWAP1 SWAP3 MSTORE PUSH2 0x1E1F SWAP2 DUP2 ADD SWAP1 PUSH2 0x29AC JUMP JUMPDEST PUSH1 0x1 JUMPDEST PUSH2 0x1E2E JUMPI PUSH2 0x1BE3 PUSH2 0x29C9 JUMP JUMPDEST PUSH1 0x1 PUSH1 0x1 PUSH1 0xE0 SHL SUB NOT DUP2 AND PUSH4 0xF23A6E61 PUSH1 0xE0 SHL EQ PUSH2 0x19F3 JUMPI PUSH1 0x40 MLOAD PUSH3 0x461BCD PUSH1 0xE5 SHL DUP2 MSTORE PUSH1 0x4 ADD PUSH2 0x77A SWAP1 PUSH2 0x2A6F JUMP JUMPDEST PUSH1 0x1 PUSH1 0x1 PUSH1 0xA0 SHL SUB DUP6 AND PUSH2 0x1EE5 JUMPI PUSH1 0x0 JUMPDEST DUP4 MLOAD DUP2 LT ISZERO PUSH2 0x1EE3 JUMPI DUP3 DUP2 DUP2 MLOAD DUP2 LT PUSH2 0x1E8A JUMPI PUSH2 0x1E8A PUSH2 0x2711 JUMP JUMPDEST PUSH1 0x20 MUL PUSH1 0x20 ADD ADD MLOAD PUSH1 0x4 PUSH1 0x0 DUP7 DUP5 DUP2 MLOAD DUP2 LT PUSH2 0x1EA8 JUMPI PUSH2 0x1EA8 PUSH2 0x2711 JUMP JUMPDEST PUSH1 0x20 MUL PUSH1 0x20 ADD ADD MLOAD DUP2 MSTORE PUSH1 0x20 ADD SWAP1 DUP2 MSTORE PUSH1 0x20 ADD PUSH1 0x0 KECCAK256 PUSH1 0x0 DUP3 DUP3 SLOAD PUSH2 0x1ECD SWAP2 SWAP1 PUSH2 0x27AA JUMP JUMPDEST SWAP1 SWAP2 SSTORE POP PUSH2 0x1EDC SWAP1 POP DUP2 PUSH2 0x2727 JUMP JUMPDEST SWAP1 POP PUSH2 0x1E6F JUMP JUMPDEST POP JUMPDEST PUSH1 0x1 PUSH1 0x1 PUSH1 0xA0 SHL SUB DUP5 AND PUSH2 0x13CB JUMPI PUSH1 0x0 JUMPDEST DUP4 MLOAD DUP2 LT ISZERO PUSH2 0x19F3 JUMPI DUP3 DUP2 DUP2 MLOAD DUP2 LT PUSH2 0x1F11 JUMPI PUSH2 0x1F11 PUSH2 0x2711 JUMP JUMPDEST PUSH1 0x20 MUL PUSH1 0x20 ADD ADD MLOAD PUSH1 0x4 PUSH1 0x0 DUP7 DUP5 DUP2 MLOAD DUP2 LT PUSH2 0x1F2F JUMPI PUSH2 0x1F2F PUSH2 0x2711 JUMP JUMPDEST PUSH1 0x20 MUL PUSH1 0x20 ADD ADD MLOAD DUP2 MSTORE PUSH1 0x20 ADD SWAP1 DUP2 MSTORE PUSH1 0x20 ADD PUSH1 0x0 KECCAK256 PUSH1 0x0 DUP3 DUP3 SLOAD PUSH2 0x1F54 SWAP2 SWAP1 PUSH2 0x26FA JUMP JUMPDEST SWAP1 SWAP2 SSTORE POP PUSH2 0x1F63 SWAP1 POP DUP2 PUSH2 0x2727 JUMP JUMPDEST SWAP1 POP PUSH2 0x1EF6 JUMP JUMPDEST DUP3 DUP1 SLOAD PUSH2 0x1F76 SWAP1 PUSH2 0x26A9 JUMP JUMPDEST SWAP1 PUSH1 0x0 MSTORE PUSH1 0x20 PUSH1 0x0 KECCAK256 SWAP1 PUSH1 0x1F ADD PUSH1 0x20 SWAP1 DIV DUP2 ADD SWAP3 DUP3 PUSH2 0x1F98 JUMPI PUSH1 0x0 DUP6 SSTORE PUSH2 0x1FDE JUMP JUMPDEST DUP3 PUSH1 0x1F LT PUSH2 0x1FB1 JUMPI DUP1 MLOAD PUSH1 0xFF NOT AND DUP4 DUP1 ADD OR DUP6 SSTORE PUSH2 0x1FDE JUMP JUMPDEST DUP3 DUP1 ADD PUSH1 0x1 ADD DUP6 SSTORE DUP3 ISZERO PUSH2 0x1FDE JUMPI SWAP2 DUP3 ADD JUMPDEST DUP3 DUP2 GT ISZERO PUSH2 0x1FDE JUMPI DUP3 MLOAD DUP3 SSTORE SWAP2 PUSH1 0x20 ADD SWAP2 SWAP1 PUSH1 0x1 ADD SWAP1 PUSH2 0x1FC3 JUMP JUMPDEST POP PUSH2 0x1FEA SWAP3 SWAP2 POP PUSH2 0x1FEE JUMP JUMPDEST POP SWAP1 JUMP JUMPDEST JUMPDEST DUP1 DUP3 GT ISZERO PUSH2 0x1FEA JUMPI PUSH1 0x0 DUP2 SSTORE PUSH1 0x1 ADD PUSH2 0x1FEF JUMP JUMPDEST DUP1 CALLDATALOAD PUSH1 0x1 PUSH1 0x1 PUSH1 0xA0 SHL SUB DUP2 AND DUP2 EQ PUSH2 0x201A JUMPI PUSH1 0x0 DUP1 REVERT JUMPDEST SWAP2 SWAP1 POP JUMP JUMPDEST PUSH1 0x0 DUP1 PUSH1 0x40 DUP4 DUP6 SUB SLT ISZERO PUSH2 0x2032 JUMPI PUSH1 0x0 DUP1 REVERT JUMPDEST PUSH2 0x203B DUP4 PUSH2 0x2003 JUMP JUMPDEST SWAP5 PUSH1 0x20 SWAP4 SWAP1 SWAP4 ADD CALLDATALOAD SWAP4 POP POP POP JUMP JUMPDEST PUSH1 0x1 PUSH1 0x1 PUSH1 0xE0 SHL SUB NOT DUP2 AND DUP2 EQ PUSH2 0x82E JUMPI PUSH1 0x0 DUP1 REVERT JUMPDEST PUSH1 0x0 PUSH1 0x20 DUP3 DUP5 SUB SLT ISZERO PUSH2 0x2071 JUMPI PUSH1 0x0 DUP1 REVERT JUMPDEST DUP2 CALLDATALOAD PUSH2 0x11C1 DUP2 PUSH2 0x2049 JUMP JUMPDEST PUSH4 0x4E487B71 PUSH1 0xE0 SHL PUSH1 0x0 MSTORE PUSH1 0x41 PUSH1 0x4 MSTORE PUSH1 0x24 PUSH1 0x0 REVERT JUMPDEST PUSH1 0x1F DUP3 ADD PUSH1 0x1F NOT AND DUP2 ADD PUSH8 0xFFFFFFFFFFFFFFFF DUP2 GT DUP3 DUP3 LT OR ISZERO PUSH2 0x20B8 JUMPI PUSH2 0x20B8 PUSH2 0x207C JUMP JUMPDEST PUSH1 0x40 MSTORE POP POP JUMP JUMPDEST PUSH1 0x0 PUSH8 0xFFFFFFFFFFFFFFFF DUP4 GT ISZERO PUSH2 0x20D9 JUMPI PUSH2 0x20D9 PUSH2 0x207C JUMP JUMPDEST PUSH1 0x40 MLOAD PUSH2 0x20F0 PUSH1 0x1F DUP6 ADD PUSH1 0x1F NOT AND PUSH1 0x20 ADD DUP3 PUSH2 0x2092 JUMP JUMPDEST DUP1 SWAP2 POP DUP4 DUP2 MSTORE DUP5 DUP5 DUP5 ADD GT ISZERO PUSH2 0x2105 JUMPI PUSH1 0x0 DUP1 REVERT JUMPDEST DUP4 DUP4 PUSH1 0x20 DUP4 ADD CALLDATACOPY PUSH1 0x0 PUSH1 0x20 DUP6 DUP4 ADD ADD MSTORE POP SWAP4 SWAP3 POP POP POP JUMP JUMPDEST PUSH1 0x0 PUSH1 0x20 DUP3 DUP5 SUB SLT ISZERO PUSH2 0x212F JUMPI PUSH1 0x0 DUP1 REVERT JUMPDEST DUP2 CALLDATALOAD PUSH8 0xFFFFFFFFFFFFFFFF DUP2 GT ISZERO PUSH2 0x2146 JUMPI PUSH1 0x0 DUP1 REVERT JUMPDEST DUP3 ADD PUSH1 0x1F DUP2 ADD DUP5 SGT PUSH2 0x2157 JUMPI PUSH1 0x0 DUP1 REVERT JUMPDEST PUSH2 0x2166 DUP5 DUP3 CALLDATALOAD PUSH1 0x20 DUP5 ADD PUSH2 0x20BF JUMP JUMPDEST SWAP5 SWAP4 POP POP POP POP JUMP JUMPDEST PUSH1 0x0 DUP2 MLOAD DUP1 DUP5 MSTORE PUSH1 0x0 JUMPDEST DUP2 DUP2 LT ISZERO PUSH2 0x2194 JUMPI PUSH1 0x20 DUP2 DUP6 ADD DUP2 ADD MLOAD DUP7 DUP4 ADD DUP3 ADD MSTORE ADD PUSH2 0x2178 JUMP JUMPDEST DUP2 DUP2 GT ISZERO PUSH2 0x21A6 JUMPI PUSH1 0x0 PUSH1 0x20 DUP4 DUP8 ADD ADD MSTORE JUMPDEST POP PUSH1 0x1F ADD PUSH1 0x1F NOT AND SWAP3 SWAP1 SWAP3 ADD PUSH1 0x20 ADD SWAP3 SWAP2 POP POP JUMP JUMPDEST PUSH1 0x20 DUP2 MSTORE PUSH1 0x0 PUSH2 0x11C1 PUSH1 0x20 DUP4 ADD DUP5 PUSH2 0x216E JUMP JUMPDEST PUSH1 0x0 PUSH1 0x20 DUP3 DUP5 SUB SLT ISZERO PUSH2 0x21E0 JUMPI PUSH1 0x0 DUP1 REVERT JUMPDEST POP CALLDATALOAD SWAP2 SWAP1 POP JUMP JUMPDEST PUSH1 0x0 PUSH8 0xFFFFFFFFFFFFFFFF DUP3 GT ISZERO PUSH2 0x2201 JUMPI PUSH2 0x2201 PUSH2 0x207C JUMP JUMPDEST POP PUSH1 0x5 SHL PUSH1 0x20 ADD SWAP1 JUMP JUMPDEST PUSH1 0x0 DUP3 PUSH1 0x1F DUP4 ADD SLT PUSH2 0x221C JUMPI PUSH1 0x0 DUP1 REVERT JUMPDEST DUP2 CALLDATALOAD PUSH1 0x20 PUSH2 0x2229 DUP3 PUSH2 0x21E7 JUMP JUMPDEST PUSH1 0x40 MLOAD PUSH2 0x2236 DUP3 DUP3 PUSH2 0x2092 JUMP JUMPDEST DUP4 DUP2 MSTORE PUSH1 0x5 SWAP4 SWAP1 SWAP4 SHL DUP6 ADD DUP3 ADD SWAP3 DUP3 DUP2 ADD SWAP2 POP DUP7 DUP5 GT ISZERO PUSH2 0x2256 JUMPI PUSH1 0x0 DUP1 REVERT JUMPDEST DUP3 DUP7 ADD JUMPDEST DUP5 DUP2 LT ISZERO PUSH2 0x2271 JUMPI DUP1 CALLDATALOAD DUP4 MSTORE SWAP2 DUP4 ADD SWAP2 DUP4 ADD PUSH2 0x225A JUMP JUMPDEST POP SWAP7 SWAP6 POP POP POP POP POP POP JUMP JUMPDEST PUSH1 0x0 DUP3 PUSH1 0x1F DUP4 ADD SLT PUSH2 0x228D JUMPI PUSH1 0x0 DUP1 REVERT JUMPDEST PUSH2 0x11C1 DUP4 DUP4 CALLDATALOAD PUSH1 0x20 DUP6 ADD PUSH2 0x20BF JUMP JUMPDEST PUSH1 0x0 DUP1 PUSH1 0x0 DUP1 PUSH1 0x0 PUSH1 0xA0 DUP7 DUP9 SUB SLT ISZERO PUSH2 0x22B4 JUMPI PUSH1 0x0 DUP1 REVERT JUMPDEST PUSH2 0x22BD DUP7 PUSH2 0x2003 JUMP JUMPDEST SWAP5 POP PUSH2 0x22CB PUSH1 0x20 DUP8 ADD PUSH2 0x2003 JUMP JUMPDEST SWAP4 POP PUSH1 0x40 DUP7 ADD CALLDATALOAD PUSH8 0xFFFFFFFFFFFFFFFF DUP1 DUP3 GT ISZERO PUSH2 0x22E8 JUMPI PUSH1 0x0 DUP1 REVERT JUMPDEST PUSH2 0x22F4 DUP10 DUP4 DUP11 ADD PUSH2 0x220B JUMP JUMPDEST SWAP5 POP PUSH1 0x60 DUP9 ADD CALLDATALOAD SWAP2 POP DUP1 DUP3 GT ISZERO PUSH2 0x230A JUMPI PUSH1 0x0 DUP1 REVERT JUMPDEST PUSH2 0x2316 DUP10 DUP4 DUP11 ADD PUSH2 0x220B JUMP JUMPDEST SWAP4 POP PUSH1 0x80 DUP9 ADD CALLDATALOAD SWAP2 POP DUP1 DUP3 GT ISZERO PUSH2 0x232C JUMPI PUSH1 0x0 DUP1 REVERT JUMPDEST POP PUSH2 0x2339 DUP9 DUP3 DUP10 ADD PUSH2 0x227C JUMP JUMPDEST SWAP2 POP POP SWAP3 SWAP6 POP SWAP3 SWAP6 SWAP1 SWAP4 POP JUMP JUMPDEST PUSH1 0x0 PUSH1 0x20 DUP3 DUP5 SUB SLT ISZERO PUSH2 0x2358 JUMPI PUSH1 0x0 DUP1 REVERT JUMPDEST PUSH2 0x11C1 DUP3 PUSH2 0x2003 JUMP JUMPDEST PUSH1 0x0 DUP1 PUSH1 0x0 PUSH1 0x40 DUP5 DUP7 SUB SLT ISZERO PUSH2 0x2376 JUMPI PUSH1 0x0 DUP1 REVERT JUMPDEST DUP4 CALLDATALOAD SWAP3 POP PUSH1 0x20 DUP5 ADD CALLDATALOAD PUSH8 0xFFFFFFFFFFFFFFFF DUP1 DUP3 GT ISZERO PUSH2 0x2395 JUMPI PUSH1 0x0 DUP1 REVERT JUMPDEST DUP2 DUP7 ADD SWAP2 POP DUP7 PUSH1 0x1F DUP4 ADD SLT PUSH2 0x23A9 JUMPI PUSH1 0x0 DUP1 REVERT JUMPDEST DUP2 CALLDATALOAD DUP2 DUP2 GT ISZERO PUSH2 0x23B8 JUMPI PUSH1 0x0 DUP1 REVERT JUMPDEST DUP8 PUSH1 0x20 DUP3 PUSH1 0x5 SHL DUP6 ADD ADD GT ISZERO PUSH2 0x23CD JUMPI PUSH1 0x0 DUP1 REVERT JUMPDEST PUSH1 0x20 DUP4 ADD SWAP5 POP DUP1 SWAP4 POP POP POP POP SWAP3 POP SWAP3 POP SWAP3 JUMP JUMPDEST PUSH1 0x0 DUP1 PUSH1 0x40 DUP4 DUP6 SUB SLT ISZERO PUSH2 0x23F3 JUMPI PUSH1 0x0 DUP1 REVERT JUMPDEST DUP3 CALLDATALOAD PUSH8 0xFFFFFFFFFFFFFFFF DUP1 DUP3 GT ISZERO PUSH2 0x240B JUMPI PUSH1 0x0 DUP1 REVERT JUMPDEST DUP2 DUP6 ADD SWAP2 POP DUP6 PUSH1 0x1F DUP4 ADD SLT PUSH2 0x241F JUMPI PUSH1 0x0 DUP1 REVERT JUMPDEST DUP2 CALLDATALOAD PUSH1 0x20 PUSH2 0x242C DUP3 PUSH2 0x21E7 JUMP JUMPDEST PUSH1 0x40 MLOAD PUSH2 0x2439 DUP3 DUP3 PUSH2 0x2092 JUMP JUMPDEST DUP4 DUP2 MSTORE PUSH1 0x5 SWAP4 SWAP1 SWAP4 SHL DUP6 ADD DUP3 ADD SWAP3 DUP3 DUP2 ADD SWAP2 POP DUP10 DUP5 GT ISZERO PUSH2 0x2459 JUMPI PUSH1 0x0 DUP1 REVERT JUMPDEST SWAP5 DUP3 ADD SWAP5 JUMPDEST DUP4 DUP7 LT ISZERO PUSH2 0x247E JUMPI PUSH2 0x246F DUP7 PUSH2 0x2003 JUMP JUMPDEST DUP3 MSTORE SWAP5 DUP3 ADD SWAP5 SWAP1 DUP3 ADD SWAP1 PUSH2 0x245E JUMP JUMPDEST SWAP7 POP POP DUP7 ADD CALLDATALOAD SWAP3 POP POP DUP1 DUP3 GT ISZERO PUSH2 0x2494 JUMPI PUSH1 0x0 DUP1 REVERT JUMPDEST POP PUSH2 0x24A1 DUP6 DUP3 DUP7 ADD PUSH2 0x220B JUMP JUMPDEST SWAP2 POP POP SWAP3 POP SWAP3 SWAP1 POP JUMP JUMPDEST PUSH1 0x0 DUP2 MLOAD DUP1 DUP5 MSTORE PUSH1 0x20 DUP1 DUP6 ADD SWAP5 POP DUP1 DUP5 ADD PUSH1 0x0 JUMPDEST DUP4 DUP2 LT ISZERO PUSH2 0x24DB JUMPI DUP2 MLOAD DUP8 MSTORE SWAP6 DUP3 ADD SWAP6 SWAP1 DUP3 ADD SWAP1 PUSH1 0x1 ADD PUSH2 0x24BF JUMP JUMPDEST POP SWAP5 SWAP6 SWAP5 POP POP POP POP POP JUMP JUMPDEST PUSH1 0x20 DUP2 MSTORE PUSH1 0x0 PUSH2 0x11C1 PUSH1 0x20 DUP4 ADD DUP5 PUSH2 0x24AB JUMP JUMPDEST PUSH1 0x0 DUP1 PUSH1 0x0 PUSH1 0x60 DUP5 DUP7 SUB SLT ISZERO PUSH2 0x250E JUMPI PUSH1 0x0 DUP1 REVERT JUMPDEST PUSH2 0x2517 DUP5 PUSH2 0x2003 JUMP JUMPDEST SWAP3 POP PUSH1 0x20 DUP5 ADD CALLDATALOAD PUSH8 0xFFFFFFFFFFFFFFFF DUP1 DUP3 GT ISZERO PUSH2 0x2534 JUMPI PUSH1 0x0 DUP1 REVERT JUMPDEST PUSH2 0x2540 DUP8 DUP4 DUP9 ADD PUSH2 0x220B JUMP JUMPDEST SWAP4 POP PUSH1 0x40 DUP7 ADD CALLDATALOAD SWAP2 POP DUP1 DUP3 GT ISZERO PUSH2 0x2556 JUMPI PUSH1 0x0 DUP1 REVERT JUMPDEST POP PUSH2 0x2563 DUP7 DUP3 DUP8 ADD PUSH2 0x220B JUMP JUMPDEST SWAP2 POP POP SWAP3 POP SWAP3 POP SWAP3 JUMP JUMPDEST PUSH1 0x0 DUP1 PUSH1 0x40 DUP4 DUP6 SUB SLT ISZERO PUSH2 0x2580 JUMPI PUSH1 0x0 DUP1 REVERT JUMPDEST PUSH2 0x2589 DUP4 PUSH2 0x2003 JUMP JUMPDEST SWAP2 POP PUSH1 0x20 DUP4 ADD CALLDATALOAD DUP1 ISZERO ISZERO DUP2 EQ PUSH2 0x259E JUMPI PUSH1 0x0 DUP1 REVERT JUMPDEST DUP1 SWAP2 POP POP SWAP3 POP SWAP3 SWAP1 POP JUMP JUMPDEST PUSH1 0x0 DUP1 PUSH1 0x40 DUP4 DUP6 SUB SLT ISZERO PUSH2 0x25BC JUMPI PUSH1 0x0 DUP1 REVERT JUMPDEST PUSH2 0x25C5 DUP4 PUSH2 0x2003 JUMP JUMPDEST SWAP2 POP PUSH2 0x25D3 PUSH1 0x20 DUP5 ADD PUSH2 0x2003 JUMP JUMPDEST SWAP1 POP SWAP3 POP SWAP3 SWAP1 POP JUMP JUMPDEST PUSH1 0x0 DUP1 PUSH1 0x0 DUP1 PUSH1 0x0 PUSH1 0xA0 DUP7 DUP9 SUB SLT ISZERO PUSH2 0x25F4 JUMPI PUSH1 0x0 DUP1 REVERT JUMPDEST PUSH2 0x25FD DUP7 PUSH2 0x2003 JUMP JUMPDEST SWAP5 POP PUSH2 0x260B PUSH1 0x20 DUP8 ADD PUSH2 0x2003 JUMP JUMPDEST SWAP4 POP PUSH1 0x40 DUP7 ADD CALLDATALOAD SWAP3 POP PUSH1 0x60 DUP7 ADD CALLDATALOAD SWAP2 POP PUSH1 0x80 DUP7 ADD CALLDATALOAD PUSH8 0xFFFFFFFFFFFFFFFF DUP2 GT ISZERO PUSH2 0x2635 JUMPI PUSH1 0x0 DUP1 REVERT JUMPDEST PUSH2 0x2339 DUP9 DUP3 DUP10 ADD PUSH2 0x227C JUMP JUMPDEST PUSH1 0x0 DUP1 PUSH1 0x0 PUSH1 0x60 DUP5 DUP7 SUB SLT ISZERO PUSH2 0x2656 JUMPI PUSH1 0x0 DUP1 REVERT JUMPDEST PUSH2 0x265F DUP5 PUSH2 0x2003 JUMP JUMPDEST SWAP6 PUSH1 0x20 DUP6 ADD CALLDATALOAD SWAP6 POP PUSH1 0x40 SWAP1 SWAP5 ADD CALLDATALOAD SWAP4 SWAP3 POP POP POP JUMP JUMPDEST PUSH1 0x20 DUP1 DUP3 MSTORE DUP2 DUP2 ADD MSTORE PUSH32 0x4F776E61626C653A2063616C6C6572206973206E6F7420746865206F776E6572 PUSH1 0x40 DUP3 ADD MSTORE PUSH1 0x60 ADD SWAP1 JUMP JUMPDEST PUSH1 0x1 DUP2 DUP2 SHR SWAP1 DUP3 AND DUP1 PUSH2 0x26BD JUMPI PUSH1 0x7F DUP3 AND SWAP2 POP JUMPDEST PUSH1 0x20 DUP3 LT DUP2 EQ ISZERO PUSH2 0x26DE JUMPI PUSH4 0x4E487B71 PUSH1 0xE0 SHL PUSH1 0x0 MSTORE PUSH1 0x22 PUSH1 0x4 MSTORE PUSH1 0x24 PUSH1 0x0 REVERT JUMPDEST POP SWAP2 SWAP1 POP JUMP JUMPDEST PUSH4 0x4E487B71 PUSH1 0xE0 SHL PUSH1 0x0 MSTORE PUSH1 0x11 PUSH1 0x4 MSTORE PUSH1 0x24 PUSH1 0x0 REVERT JUMPDEST PUSH1 0x0 DUP3 DUP3 LT ISZERO PUSH2 0x270C JUMPI PUSH2 0x270C PUSH2 0x26E4 JUMP JUMPDEST POP SUB SWAP1 JUMP JUMPDEST PUSH4 0x4E487B71 PUSH1 0xE0 SHL PUSH1 0x0 MSTORE PUSH1 0x32 PUSH1 0x4 MSTORE PUSH1 0x24 PUSH1 0x0 REVERT JUMPDEST PUSH1 0x0 PUSH1 0x0 NOT DUP3 EQ ISZERO PUSH2 0x273B JUMPI PUSH2 0x273B PUSH2 0x26E4 JUMP JUMPDEST POP PUSH1 0x1 ADD SWAP1 JUMP JUMPDEST PUSH1 0x20 DUP1 DUP3 MSTORE PUSH1 0x29 SWAP1 DUP3 ADD MSTORE PUSH32 0x455243313135353A2063616C6C6572206973206E6F74206F776E6572206E6F72 PUSH1 0x40 DUP3 ADD MSTORE PUSH9 0x8185C1C1C9BDD9959 PUSH1 0xBA SHL PUSH1 0x60 DUP3 ADD MSTORE PUSH1 0x80 ADD SWAP1 JUMP JUMPDEST PUSH1 0x0 DUP2 PUSH1 0x0 NOT DIV DUP4 GT DUP3 ISZERO ISZERO AND ISZERO PUSH2 0x27A5 JUMPI PUSH2 0x27A5 PUSH2 0x26E4 JUMP JUMPDEST POP MUL SWAP1 JUMP JUMPDEST PUSH1 0x0 DUP3 NOT DUP3 GT ISZERO PUSH2 0x27BD JUMPI PUSH2 0x27BD PUSH2 0x26E4 JUMP JUMPDEST POP ADD SWAP1 JUMP JUMPDEST PUSH1 0x20 DUP1 DUP3 MSTORE PUSH1 0x28 SWAP1 DUP3 ADD MSTORE PUSH32 0x455243313135353A2069647320616E6420616D6F756E7473206C656E67746820 PUSH1 0x40 DUP3 ADD MSTORE PUSH8 0xDAD2E6DAC2E8C6D PUSH1 0xC3 SHL PUSH1 0x60 DUP3 ADD MSTORE PUSH1 0x80 ADD SWAP1 JUMP JUMPDEST PUSH1 0x20 DUP1 DUP3 MSTORE PUSH1 0x25 SWAP1 DUP3 ADD MSTORE PUSH32 0x455243313135353A207472616E7366657220746F20746865207A65726F206164 PUSH1 0x40 DUP3 ADD MSTORE PUSH5 0x6472657373 PUSH1 0xD8 SHL PUSH1 0x60 DUP3 ADD MSTORE PUSH1 0x80 ADD SWAP1 JUMP JUMPDEST PUSH1 0x20 DUP1 DUP3 MSTORE PUSH1 0x2A SWAP1 DUP3 ADD MSTORE PUSH32 0x455243313135353A20696E73756666696369656E742062616C616E636520666F PUSH1 0x40 DUP3 ADD MSTORE PUSH10 0x39103A3930B739B332B9 PUSH1 0xB1 SHL PUSH1 0x60 DUP3 ADD MSTORE PUSH1 0x80 ADD SWAP1 JUMP JUMPDEST PUSH1 0x40 DUP2 MSTORE PUSH1 0x0 PUSH2 0x28AC PUSH1 0x40 DUP4 ADD DUP6 PUSH2 0x24AB JUMP JUMPDEST DUP3 DUP2 SUB PUSH1 0x20 DUP5 ADD MSTORE PUSH2 0x28BE DUP2 DUP6 PUSH2 0x24AB JUMP JUMPDEST SWAP6 SWAP5 POP POP POP POP POP JUMP JUMPDEST PUSH1 0x20 DUP1 DUP3 MSTORE PUSH1 0x23 SWAP1 DUP3 ADD MSTORE PUSH32 0x455243313135353A206275726E2066726F6D20746865207A65726F2061646472 PUSH1 0x40 DUP3 ADD MSTORE PUSH3 0x657373 PUSH1 0xE8 SHL PUSH1 0x60 DUP3 ADD MSTORE PUSH1 0x80 ADD SWAP1 JUMP JUMPDEST PUSH1 0x20 DUP1 DUP3 MSTORE PUSH1 0x24 SWAP1 DUP3 ADD MSTORE PUSH32 0x455243313135353A206275726E20616D6F756E7420657863656564732062616C PUSH1 0x40 DUP3 ADD MSTORE PUSH4 0x616E6365 PUSH1 0xE0 SHL PUSH1 0x60 DUP3 ADD MSTORE PUSH1 0x80 ADD SWAP1 JUMP JUMPDEST PUSH1 0x1 PUSH1 0x1 PUSH1 0xA0 SHL SUB DUP7 DUP2 AND DUP3 MSTORE DUP6 AND PUSH1 0x20 DUP3 ADD MSTORE PUSH1 0xA0 PUSH1 0x40 DUP3 ADD DUP2 SWAP1 MSTORE PUSH1 0x0 SWAP1 PUSH2 0x297A SWAP1 DUP4 ADD DUP7 PUSH2 0x24AB JUMP JUMPDEST DUP3 DUP2 SUB PUSH1 0x60 DUP5 ADD MSTORE PUSH2 0x298C DUP2 DUP7 PUSH2 0x24AB JUMP JUMPDEST SWAP1 POP DUP3 DUP2 SUB PUSH1 0x80 DUP5 ADD MSTORE PUSH2 0x29A0 DUP2 DUP6 PUSH2 0x216E JUMP JUMPDEST SWAP9 SWAP8 POP POP POP POP POP POP POP POP JUMP JUMPDEST PUSH1 0x0 PUSH1 0x20 DUP3 DUP5 SUB SLT ISZERO PUSH2 0x29BE JUMPI PUSH1 0x0 DUP1 REVERT JUMPDEST DUP2 MLOAD PUSH2 0x11C1 DUP2 PUSH2 0x2049 JUMP JUMPDEST PUSH1 0x0 PUSH1 0x3 RETURNDATASIZE GT ISZERO PUSH2 0x29E2 JUMPI PUSH1 0x4 PUSH1 0x0 DUP1 RETURNDATACOPY POP PUSH1 0x0 MLOAD PUSH1 0xE0 SHR JUMPDEST SWAP1 JUMP JUMPDEST PUSH1 0x0 PUSH1 0x44 RETURNDATASIZE LT ISZERO PUSH2 0x29F3 JUMPI SWAP1 JUMP JUMPDEST PUSH1 0x40 MLOAD PUSH1 0x3 NOT RETURNDATASIZE DUP2 ADD PUSH1 0x4 DUP4 RETURNDATACOPY DUP2 MLOAD RETURNDATASIZE PUSH8 0xFFFFFFFFFFFFFFFF DUP2 PUSH1 0x24 DUP5 ADD GT DUP2 DUP5 GT OR ISZERO PUSH2 0x2A23 JUMPI POP POP POP POP POP SWAP1 JUMP JUMPDEST DUP3 DUP6 ADD SWAP2 POP DUP2 MLOAD DUP2 DUP2 GT ISZERO PUSH2 0x2A3B JUMPI POP POP POP POP POP POP SWAP1 JUMP JUMPDEST DUP5 RETURNDATASIZE DUP8 ADD ADD PUSH1 0x20 DUP3 DUP6 ADD ADD GT ISZERO PUSH2 0x2A55 JUMPI POP POP POP POP POP POP SWAP1 JUMP JUMPDEST PUSH2 0x2A64 PUSH1 0x20 DUP3 DUP7 ADD ADD DUP8 PUSH2 0x2092 JUMP JUMPDEST POP SWAP1 SWAP6 SWAP5 POP POP POP POP POP JUMP JUMPDEST PUSH1 0x20 DUP1 DUP3 MSTORE PUSH1 0x28 SWAP1 DUP3 ADD MSTORE PUSH32 0x455243313135353A204552433131353552656365697665722072656A65637465 PUSH1 0x40 DUP3 ADD MSTORE PUSH8 0x6420746F6B656E73 PUSH1 0xC0 SHL PUSH1 0x60 DUP3 ADD MSTORE PUSH1 0x80 ADD SWAP1 JUMP JUMPDEST PUSH1 0x1 PUSH1 0x1 PUSH1 0xA0 SHL SUB DUP7 DUP2 AND DUP3 MSTORE DUP6 AND PUSH1 0x20 DUP3 ADD MSTORE PUSH1 0x40 DUP2 ADD DUP5 SWAP1 MSTORE PUSH1 0x60 DUP2 ADD DUP4 SWAP1 MSTORE PUSH1 0xA0 PUSH1 0x80 DUP3 ADD DUP2 SWAP1 MSTORE PUSH1 0x0 SWAP1 PUSH2 0x2AF1 SWAP1 DUP4 ADD DUP5 PUSH2 0x216E JUMP JUMPDEST SWAP8 SWAP7 POP POP POP POP POP POP POP JUMP INVALID LOG2 PUSH5 0x6970667358 0x22 SLT KECCAK256 0xBC 0xE8 DUP12 0x23 MSTORE8 0xAB BASEFEE SWAP7 0x24 GAS 0x24 PUSH11 0x84F7ABC62018B4FEF2291D SHL SELFDESTRUCT BASEFEE ADDRESS 0x5E 0xEE 0xAF 0xD3 0x2F PUSH5 0x736F6C6343 STOP ADDMOD SIGNEXTEND STOP CALLER ",
  "sha1": "d59142e3142836124b0e9233ff757db18803b90c",
  "source": "// SPDX-License-Identifier: MIT\npragma solidity ^0.8.5;\n\nimport \"@openzeppelin/contracts/token/ERC1155/ERC1155.sol\";\nimport \"@openzeppelin/contracts/access/Ownable.sol\";\nimport \"@openzeppelin/contracts/utils/math/SafeMath.sol\";\nimport \"@openzeppelin/contracts/security/Pausable.sol\";\nimport \"@openzeppelin/contracts/token/ERC1155/extensions/ERC1155Burnable.sol\";\nimport \"@openzeppelin/contracts/token/ERC1155/extensions/ERC1155Supply.sol\";\nimport \"@openzeppelin/contracts/utils/cryptography/MerkleProof.sol\";\n\ncontract BillionaireBabiesIncubator is ERC1155, Ownable, Pausable, ERC1155Burnable, ERC1155Supply {\n\n    string public name = \"mintincubator\";\n    string public symbol = \"bbi\";\n\n\n    uint256 public constant INCUBATOR = 1;\n    uint256 public constant MAX_MINT_PER_ADDRESS = 5;\n    uint256 public preSaleMintPrice = 0.1 ether;\n    uint256 public publicSaleMintPrice = 0.15 ether;\n    uint256 public tokenCount;\n\n    bytes32 internal merkleRoot;\n\n    bool public preSaleOpen = false;\n    bool public publicSaleOpen = false;\n    bool public teamAwardClaimed = false;\n    address payable internal teamAddress;\n    mapping(address => uint256) internal preSaleUserMints;\n    mapping(address => uint256) internal publicSaleUserMints;\n\n    /// Function Not open yet\n    error NotOpenYet();\n    /// Amount exceeds address allowance\n    error AmountExceedsAllowance();\n    /// msg.value too low\n    error MintPayableTooLow();\n    /// You are not on the whitelist\n    error NotOnWhitelist();\n    /// Team award already claimed\n    error TeamAwardClaimed();\n\n    constructor(address _teamAddress) ERC1155(\"\") {\n        teamAddress = payable(_teamAddress);\n    }\n\n    modifier isBelowUserAllowance(uint256 amount, mapping(address => uint256) storage userMints) {\n        if (SafeMath.add(amount, userMints[msg.sender]) > MAX_MINT_PER_ADDRESS)\n            revert AmountExceedsAllowance(); // dev: amount would exceed address allowance\n        _;\n    }\n\n    modifier isNotBelowMintPrice(uint256 _amount, uint256 _mintPrice) {\n        if (msg.value < SafeMath.mul(_amount, _mintPrice))\n            revert MintPayableTooLow(); // dev: msg.value too low\n        _;\n    }\n\n    function preSaleMint(uint256 _amount, bytes32[] calldata _merkleProof) external\n        isNotBelowMintPrice(_amount, preSaleMintPrice)\n        isBelowUserAllowance(_amount, preSaleUserMints)\n        payable {\n        if (preSaleOpen == false) revert NotOpenYet(); // dev: premint not open\n\n        bytes32 leaf = keccak256(abi.encodePacked(msg.sender));\n        if (MerkleProof.verify(_merkleProof, merkleRoot, leaf) == false)\n            revert NotOnWhitelist(); // dev: not on the whitelist\n        safeMint(_amount, preSaleUserMints);\n    }\n\n    function publicMint(uint256 _amount) external\n        isNotBelowMintPrice(_amount, publicSaleMintPrice)\n        isBelowUserAllowance(_amount, publicSaleUserMints)\n        payable {\n        if (publicSaleOpen == false) revert NotOpenYet(); // dev: public mint not open\n        safeMint(_amount, publicSaleUserMints);\n    }\n\n    function safeMint(uint256 _amount, mapping(address => uint256) storage _userMints) internal\n        {\n        tokenCount = SafeMath.add(tokenCount, _amount);\n        _userMints[msg.sender] = SafeMath.add(_userMints[msg.sender], _amount);\n        _mint(msg.sender, INCUBATOR, _amount, \"\");\n    }\n\n    function teamAward() external onlyOwner {\n        if (teamAwardClaimed) revert TeamAwardClaimed(); // dev: team award claimed\n\n        teamAwardClaimed = true;\n        tokenCount = SafeMath.add(tokenCount, 50);\n        _mint(teamAddress, INCUBATOR, 50, \"\");\n    }\n\n    function withdrawFunds() external virtual onlyOwner {\n        teamAddress.transfer(address(this).balance);\n    }\n\n    /**\n    * views\n    */\n\n    function getPreSaleAddressRemainingMints(address _address) external view returns (uint256) {\n        return MAX_MINT_PER_ADDRESS - preSaleUserMints[_address];\n    }\n\n    function getPublicSaleAddressRemainingMints(address _address) external view returns (uint256) {\n        return MAX_MINT_PER_ADDRESS - publicSaleUserMints[_address];\n    }\n\n    /**\n    * Settings\n    */\n\n    function togglePreSaleOpen() external virtual onlyOwner {\n        preSaleOpen = !preSaleOpen;\n    }\n\n    function togglePublicSaleOpen() external virtual onlyOwner {\n        publicSaleOpen = !publicSaleOpen;\n    }\n\n    function setURI(string memory newuri) public onlyOwner {\n        _setURI(newuri);\n    }\n\n    function setPreSaleMintPrice(uint256 _mintPrice) public onlyOwner {\n        preSaleMintPrice = _mintPrice;\n    }\n\n    function setPublicSaleMintPrice(uint256 _mintPrice) public onlyOwner {\n        publicSaleMintPrice = _mintPrice;\n    }\n\n    function setMerkleRoot(bytes32 _merkleRoot) external onlyOwner {\n        merkleRoot = _merkleRoot;\n    }\n\n    function pause() public onlyOwner {\n        _pause();\n    }\n\n    function unpause() public onlyOwner {\n        _unpause();\n    }\n\n    function _beforeTokenTransfer(address operator, address from, address to, uint256[] memory ids, uint256[] memory amounts, bytes memory data)\n        internal\n        whenNotPaused\n        override(ERC1155, ERC1155Supply)\n    {\n        super._beforeTokenTransfer(operator, from, to, ids, amounts, data);\n    }\n}\n",
  "sourcePath": "contracts/BillionaireBabiesIncubator.sol",
  "type": "contract"
}